{
  "transactions": [
    {
      "hash": "0x67be1884d8bc7cb8eeee770d631eaec7c5178e2ba7d169f7da10f704b0631722",
      "transactionType": "CALL",
      "contractName": null,
      "contractAddress": "0x68cc55914cbc2630c2c60f49531e4b70b33399ff",
      "function": "setPeer(uint32,bytes32)",
      "arguments": [
        "40231",
        "0x00000000000000000000000062fa14c85638eb81ef38121591dcb8e4e12ce9fc"
      ],
      "transaction": {
        "from": "0x29d9fb59587af02ae3bee909babdd0ac75580009",
        "to": "0x68cc55914cbc2630c2c60f49531e4b70b33399ff",
        "gas": "0x11c2a",
        "value": "0x0",
        "input": "0x3400288b0000000000000000000000000000000000000000000000000000000000009d2700000000000000000000000062fa14c85638eb81ef38121591dcb8e4e12ce9fc",
        "nonce": "0x11",
        "chainId": "0xaa36a7"
      },
      "additionalContracts": [],
      "isFixedGasLimit": false
    }
  ],
  "receipts": [
    {
      "status": "0x1",
      "cumulativeGasUsed": "0x161869b",
      "logs": [
        {
          "address": "0x68cc55914cbc2630c2c60f49531e4b70b33399ff",
          "topics": [
            "0x238399d427b947898edb290f5ff0f9109849b1c3ba196a42e35f00c50a54b98b"
          ],
          "data": "0x0000000000000000000000000000000000000000000000000000000000009d2700000000000000000000000062fa14c85638eb81ef38121591dcb8e4e12ce9fc",
          "blockHash": "0x93c25f536537ad30444c2fafd4f1171dff843c1ebe99a87774ccc8830f936ecb",
          "blockNumber": "0x84971c",
          "transactionHash": "0x67be1884d8bc7cb8eeee770d631eaec7c5178e2ba7d169f7da10f704b0631722",
          "transactionIndex": "0x132",
          "logIndex": "0x1e4",
          "removed": false
        }
      ],
      "logsBloom": "0x00000000000000000000000000000000000000000000000000000000000000000000000000000000000000000000000000000000000000000800000000000000000000000000000000000000000000000000000000000000000000000002000000000000200000000000000000000000000000000000000000000000000000000000000000000000000000000000000000000000000000000000000000000000000000000000000000000000000000000000000000000000000002000000000000000000000000002000000000000000000000000000000000040000000000000000000000000000000000000000000000000000000000000000000000000000",
      "type": "0x2",
      "transactionHash": "0x67be1884d8bc7cb8eeee770d631eaec7c5178e2ba7d169f7da10f704b0631722",
      "transactionIndex": "0x132",
      "blockHash": "0x93c25f536537ad30444c2fafd4f1171dff843c1ebe99a87774ccc8830f936ecb",
      "blockNumber": "0x84971c",
      "gasUsed": "0xcdbc",
      "effectiveGasPrice": "0x36e0152a",
      "blobGasUsed": "0x0",
      "from": "0x29d9fb59587af02ae3bee909babdd0ac75580009",
      "to": "0x68cc55914cbc2630c2c60f49531e4b70b33399ff",
      "contractAddress": null
    }
  ],
  "libraries": [],
  "pending": [],
  "returns": {},
  "timestamp": 1751619999,
  "chain": 11155111,
  "commit": "bb43c60"
}