{
  "transactions": [
    {
      "hash": "0x4e3d176eef0c97c6e64bfbed835aeb908f2164d1ea536f06be814350f9e4f045",
      "transactionType": "CALL",
      "contractName": null,
      "contractAddress": "0xb778a2bc50b441baadb1a2833eacaeff900d5ca7",
      "function": "setPeer(uint32,bytes32)",
      "arguments": [
        "40231",
        "0x000000000000000000000000f3503fd58a95dc5e24b39a440dac86cfc537d99c"
      ],
      "transaction": {
        "from": "0x9990cfb1feb7f47297f54bef4d4ebedf6c5463a3",
        "to": "0xb778a2bc50b441baadb1a2833eacaeff900d5ca7",
        "gas": "0x11c83",
        "value": "0x0",
        "input": "0x3400288b0000000000000000000000000000000000000000000000000000000000009d27000000000000000000000000f3503fd58a95dc5e24b39a440dac86cfc537d99c",
        "nonce": "0x1f",
        "chainId": "0xaa36a7"
      },
      "additionalContracts": [],
      "isFixedGasLimit": false
    },
    {
      "hash": "0x19df11046a5ae298f3c7762f20be2ab3d2917dc2e36be542b31bd7c0ad847651",
      "transactionType": "CALL",
      "contractName": null,
      "contractAddress": "0xb778a2bc50b441baadb1a2833eacaeff900d5ca7",
      "function": "setEnforcedOptions((uint32,uint16,bytes)[])",
      "arguments": [
        "[(40231, 1, 0x00030100110100000000000000000000000000011170), (40231, 2, 0x00030100110100000000000000000000000000011170)]"
      ],
      "transaction": {
        "from": "0x9990cfb1feb7f47297f54bef4d4ebedf6c5463a3",
        "to": "0xb778a2bc50b441baadb1a2833eacaeff900d5ca7",
        "gas": "0x1cd89",
        "value": "0x0",
        "input": "0xb98bd07000000000000000000000000000000000000000000000000000000000000000200000000000000000000000000000000000000000000000000000000000000002000000000000000000000000000000000000000000000000000000000000004000000000000000000000000000000000000000000000000000000000000000e00000000000000000000000000000000000000000000000000000000000009d2700000000000000000000000000000000000000000000000000000000000000010000000000000000000000000000000000000000000000000000000000000060000000000000000000000000000000000000000000000000000000000000001600030100110100000000000000000000000000011170000000000000000000000000000000000000000000000000000000000000000000000000000000009d270000000000000000000000000000000000000000000000000000000000000002000000000000000000000000000000000000000000000000000000000000006000000000000000000000000000000000000000000000000000000000000000160003010011010000000000000000000000000001117000000000000000000000",
        "nonce": "0x20",
        "chainId": "0xaa36a7"
      },
      "additionalContracts": [],
      "isFixedGasLimit": false
    },
    {
      "hash": "0x0acbbda388cb1f66f1bc48d65c81d99bdecb91c73899323db8e82a7e7e485267",
      "transactionType": "CALL",
      "contractName": "ERC1967Proxy",
      "contractAddress": "0x8dc44ce5a86915ace85cce1665a24a6b10c60c63",
      "function": null,
      "arguments": null,
      "transaction": {
        "from": "0x9990cfb1feb7f47297f54bef4d4ebedf6c5463a3",
        "to": "0x8dc44ce5a86915ace85cce1665a24a6b10c60c63",
        "gas": "0x1323b",
        "value": "0x0",
        "input": "0x2f2ff15dd7c4527c99f13bf6a80d3bc15ebce76f7f8256ab4fbf63363b10858db314c978000000000000000000000000b778a2bc50b441baadb1a2833eacaeff900d5ca7",
        "nonce": "0x21",
        "chainId": "0xaa36a7"
      },
      "additionalContracts": [],
      "isFixedGasLimit": false
    }
  ],
  "receipts": [
    {
      "status": "0x1",
      "cumulativeGasUsed": "0x138f346",
      "logs": [
        {
          "address": "0xb778a2bc50b441baadb1a2833eacaeff900d5ca7",
          "topics": [
            "0x238399d427b947898edb290f5ff0f9109849b1c3ba196a42e35f00c50a54b98b"
          ],
          "data": "0x0000000000000000000000000000000000000000000000000000000000009d27000000000000000000000000f3503fd58a95dc5e24b39a440dac86cfc537d99c",
          "blockHash": "0x3a87fa076240b0fc98f98583d8dfd4e95e7dc65f813fcd76d5266a071e5f1279",
          "blockNumber": "0x860a12",
          "transactionHash": "0x4e3d176eef0c97c6e64bfbed835aeb908f2164d1ea536f06be814350f9e4f045",
          "transactionIndex": "0xb6",
          "logIndex": "0x11c",
          "removed": false
        }
      ],
      "logsBloom": "0x00000000000000000000000000000000000000000000000000000000000000000000040000000000000000000000000000000000000000000800000000000000000000000000000000000000000000000000000000000000000000000000000040000000000000000000000000000000000000000000000010000000000000000000000000000000000000000000000000000000000000000000000000000000000000000000000000000000000000000000000000000000000002000000000000000000000000000000000000000000000000000000000000040000000000000000000000000000000000000000000000000000000000000000000000000000",
      "type": "0x2",
      "transactionHash": "0x4e3d176eef0c97c6e64bfbed835aeb908f2164d1ea536f06be814350f9e4f045",
      "transactionIndex": "0xb6",
      "blockHash": "0x3a87fa076240b0fc98f98583d8dfd4e95e7dc65f813fcd76d5266a071e5f1279",
      "blockNumber": "0x860a12",
      "gasUsed": "0xcdfc",
      "effectiveGasPrice": "0x19cdae",
      "blobGasUsed": "0x0",
      "from": "0x9990cfb1feb7f47297f54bef4d4ebedf6c5463a3",
      "to": "0xb778a2bc50b441baadb1a2833eacaeff900d5ca7",
      "contractAddress": null
    },
    {
      "status": "0x1",
      "cumulativeGasUsed": "0x1071437",
      "logs": [
        {
          "address": "0xb778a2bc50b441baadb1a2833eacaeff900d5ca7",
          "topics": [
            "0xbe4864a8e820971c0247f5992e2da559595f7bf076a21cb5928d443d2a13b674"
          ],
          "data": "0x00000000000000000000000000000000000000000000000000000000000000200000000000000000000000000000000000000000000000000000000000000002000000000000000000000000000000000000000000000000000000000000004000000000000000000000000000000000000000000000000000000000000000e00000000000000000000000000000000000000000000000000000000000009d2700000000000000000000000000000000000000000000000000000000000000010000000000000000000000000000000000000000000000000000000000000060000000000000000000000000000000000000000000000000000000000000001600030100110100000000000000000000000000011170000000000000000000000000000000000000000000000000000000000000000000000000000000009d270000000000000000000000000000000000000000000000000000000000000002000000000000000000000000000000000000000000000000000000000000006000000000000000000000000000000000000000000000000000000000000000160003010011010000000000000000000000000001117000000000000000000000",
          "blockHash": "0x0a407afc29767131992fb1c1ae5c7b9d522d8479430e71fc7ce037cbba3f02fb",
          "blockNumber": "0x860a16",
          "transactionHash": "0x19df11046a5ae298f3c7762f20be2ab3d2917dc2e36be542b31bd7c0ad847651",
          "transactionIndex": "0xac",
          "logIndex": "0x115",
          "removed": false
        }
      ],
      "logsBloom": "0x00000000000000000000000000000000000000000000000000000000000000000000040000000000000000000000000000000000000000000000400000000000000000000000000000000000000000000000000000000000000000000000000040000000000000000000000000000000000000000000000010000000000000000000000000000000000000000000000000000000000000000000000000080000000000000000000000000000000000000000000000000000000000000000000000000000000000000000000002000000000000000000000000000000000000000000000000000000000000000000000000000000000000000000000000000000",
      "type": "0x2",
      "transactionHash": "0x19df11046a5ae298f3c7762f20be2ab3d2917dc2e36be542b31bd7c0ad847651",
      "transactionIndex": "0xac",
      "blockHash": "0x0a407afc29767131992fb1c1ae5c7b9d522d8479430e71fc7ce037cbba3f02fb",
      "blockNumber": "0x860a16",
      "gasUsed": "0x14e25",
      "effectiveGasPrice": "0x1a13ea",
      "blobGasUsed": "0x0",
      "from": "0x9990cfb1feb7f47297f54bef4d4ebedf6c5463a3",
      "to": "0xb778a2bc50b441baadb1a2833eacaeff900d5ca7",
      "contractAddress": null
    },
    {
      "status": "0x1",
      "cumulativeGasUsed": "0x107f1ec",
      "logs": [
        {
          "address": "0x8dc44ce5a86915ace85cce1665a24a6b10c60c63",
          "topics": [
            "0x2f8788117e7eff1d82e926ec794901d17c78024a50270940304540a733656f0d",
            "0xd7c4527c99f13bf6a80d3bc15ebce76f7f8256ab4fbf63363b10858db314c978",
            "0x000000000000000000000000b778a2bc50b441baadb1a2833eacaeff900d5ca7",
            "0x0000000000000000000000009990cfb1feb7f47297f54bef4d4ebedf6c5463a3"
          ],
          "data": "0x",
          "blockHash": "0x0a407afc29767131992fb1c1ae5c7b9d522d8479430e71fc7ce037cbba3f02fb",
          "blockNumber": "0x860a16",
          "transactionHash": "0x0acbbda388cb1f66f1bc48d65c81d99bdecb91c73899323db8e82a7e7e485267",
          "transactionIndex": "0xad",
          "logIndex": "0x116",
          "removed": false
        }
      ],
      "logsBloom": "0x00000004000000000000000000000000000000000400000000000000000000000000000000000000000000000000000000000000800000000000000000000000000000000000000000000001000000000000000000000000000100000000000000000000000000000000000000000000000000200000000000000000000000000000000000000000000000000000000000000000000000000000001000000000000000000400000010000000000000000000000000000000001000000000000000800000000000000000000000004000000040000000000100000000000000000000000000000000000000000080000000000000000000000000000000000000",
      "type": "0x2",
      "transactionHash": "0x0acbbda388cb1f66f1bc48d65c81d99bdecb91c73899323db8e82a7e7e485267",
      "transactionIndex": "0xad",
      "blockHash": "0x0a407afc29767131992fb1c1ae5c7b9d522d8479430e71fc7ce037cbba3f02fb",
      "blockNumber": "0x860a16",
      "gasUsed": "0xddb5",
      "effectiveGasPrice": "0x1a13ea",
      "blobGasUsed": "0x0",
      "from": "0x9990cfb1feb7f47297f54bef4d4ebedf6c5463a3",
      "to": "0x8dc44ce5a86915ace85cce1665a24a6b10c60c63",
      "contractAddress": null
    }
  ],
  "libraries": [],
  "pending": [],
  "returns": {},
  "timestamp": 1752767859047,
  "chain": 11155111,
  "commit": "c2ed408"
}