{
  "transactions": [
    {
      "hash": "0x6132f3b0f07fec2ded3d6a9846bccf03b91d7d1f1060824aef9cce13fcdf3692",
      "transactionType": "CALL",
      "contractName": null,
      "contractAddress": "0xa18e571f91ab58889c348e1764fbabf622ab89b5",
      "function": "setPeer(uint32,bytes32)",
      "arguments": [
        "40231",
        "0x000000000000000000000000b560ae1dd7fdf011ead2189510ae08f2dbd168a5"
      ],
      "transaction": {
        "from": "0x9990cfb1feb7f47297f54bef4d4ebedf6c5463a3",
        "to": "0xa18e571f91ab58889c348e1764fbabf622ab89b5",
        "gas": "0x11c83",
        "value": "0x0",
        "input": "0x3400288b0000000000000000000000000000000000000000000000000000000000009d27000000000000000000000000b560ae1dd7fdf011ead2189510ae08f2dbd168a5",
        "nonce": "0x32",
        "chainId": "0xaa36a7"
      },
      "additionalContracts": [],
      "isFixedGasLimit": false
    },
    {
      "hash": "0x585a26d83d795f9b5a9df5a8026f81fd3ae4858b30ea95837d44d07096cf6050",
      "transactionType": "CALL",
      "contractName": null,
      "contractAddress": "0xa18e571f91ab58889c348e1764fbabf622ab89b5",
      "function": "setEnforcedOptions((uint32,uint16,bytes)[])",
      "arguments": [
        "[(40231, 1, 0x00030100110100000000000000000000000000011170), (40231, 2, 0x00030100110100000000000000000000000000011170)]"
      ],
      "transaction": {
        "from": "0x9990cfb1feb7f47297f54bef4d4ebedf6c5463a3",
        "to": "0xa18e571f91ab58889c348e1764fbabf622ab89b5",
        "gas": "0x1cd89",
        "value": "0x0",
        "input": "0xb98bd07000000000000000000000000000000000000000000000000000000000000000200000000000000000000000000000000000000000000000000000000000000002000000000000000000000000000000000000000000000000000000000000004000000000000000000000000000000000000000000000000000000000000000e00000000000000000000000000000000000000000000000000000000000009d2700000000000000000000000000000000000000000000000000000000000000010000000000000000000000000000000000000000000000000000000000000060000000000000000000000000000000000000000000000000000000000000001600030100110100000000000000000000000000011170000000000000000000000000000000000000000000000000000000000000000000000000000000009d270000000000000000000000000000000000000000000000000000000000000002000000000000000000000000000000000000000000000000000000000000006000000000000000000000000000000000000000000000000000000000000000160003010011010000000000000000000000000001117000000000000000000000",
        "nonce": "0x33",
        "chainId": "0xaa36a7"
      },
      "additionalContracts": [],
      "isFixedGasLimit": false
    },
    {
      "hash": "0x51fe4c283a41cdd2af17744cffc91611e19c36cf9644e3834c02f73311241679",
      "transactionType": "CALL",
      "contractName": null,
      "contractAddress": "0x7198ca5eaefe7416d4f3900b58ff1bea33771a65",
      "function": "grantRole(bytes32,address)",
      "arguments": [
        "0xd7c4527c99f13bf6a80d3bc15ebce76f7f8256ab4fbf63363b10858db314c978",
        "0xA18e571f91ab58889C348E1764fBaBF622ab89b5"
      ],
      "transaction": {
        "from": "0x9990cfb1feb7f47297f54bef4d4ebedf6c5463a3",
        "to": "0x7198ca5eaefe7416d4f3900b58ff1bea33771a65",
        "gas": "0x1323b",
        "value": "0x0",
        "input": "0x2f2ff15dd7c4527c99f13bf6a80d3bc15ebce76f7f8256ab4fbf63363b10858db314c978000000000000000000000000a18e571f91ab58889c348e1764fbabf622ab89b5",
        "nonce": "0x34",
        "chainId": "0xaa36a7"
      },
      "additionalContracts": [],
      "isFixedGasLimit": false
    }
  ],
  "receipts": [
    {
      "status": "0x1",
      "cumulativeGasUsed": "0x1959d32",
      "logs": [
        {
          "address": "0xa18e571f91ab58889c348e1764fbabf622ab89b5",
          "topics": [
            "0x238399d427b947898edb290f5ff0f9109849b1c3ba196a42e35f00c50a54b98b"
          ],
          "data": "0x0000000000000000000000000000000000000000000000000000000000009d27000000000000000000000000b560ae1dd7fdf011ead2189510ae08f2dbd168a5",
          "blockHash": "0x5334e44e401cdb7b9bdc9c3691be9527ecbd0bc3514faa82555d3d927b0d0dc9",
          "blockNumber": "0x86ace7",
          "transactionHash": "0x6132f3b0f07fec2ded3d6a9846bccf03b91d7d1f1060824aef9cce13fcdf3692",
          "transactionIndex": "0xf8",
          "logIndex": "0x1bd",
          "removed": false
        }
      ],
      "logsBloom": "0x00000000000000000000000000000000000000000000000000000000000000000000000000000000000000000000800000000000000000000820000000000000000000000000000000000000000000000000000000000000000000000000000000000000000000000000000000000000000000000000000000000000000000000000000000000000000000000000000000000000000000000000000000000000000000000000000000000000000000000000000000000000000002000000000000000000000000000000000000000000000000000000000000040000000000000000000000000000000000000800000000000000000000000000000000000000",
      "type": "0x2",
      "transactionHash": "0x6132f3b0f07fec2ded3d6a9846bccf03b91d7d1f1060824aef9cce13fcdf3692",
      "transactionIndex": "0xf8",
      "blockHash": "0x5334e44e401cdb7b9bdc9c3691be9527ecbd0bc3514faa82555d3d927b0d0dc9",
      "blockNumber": "0x86ace7",
      "gasUsed": "0xcdfc",
      "effectiveGasPrice": "0x3ff70c8e",
      "blobGasUsed": "0x0",
      "from": "0x9990cfb1feb7f47297f54bef4d4ebedf6c5463a3",
      "to": "0xa18e571f91ab58889c348e1764fbabf622ab89b5",
      "contractAddress": null
    },
    {
      "status": "0x1",
      "cumulativeGasUsed": "0x196eb57",
      "logs": [
        {
          "address": "0xa18e571f91ab58889c348e1764fbabf622ab89b5",
          "topics": [
            "0xbe4864a8e820971c0247f5992e2da559595f7bf076a21cb5928d443d2a13b674"
          ],
          "data": "0x00000000000000000000000000000000000000000000000000000000000000200000000000000000000000000000000000000000000000000000000000000002000000000000000000000000000000000000000000000000000000000000004000000000000000000000000000000000000000000000000000000000000000e00000000000000000000000000000000000000000000000000000000000009d2700000000000000000000000000000000000000000000000000000000000000010000000000000000000000000000000000000000000000000000000000000060000000000000000000000000000000000000000000000000000000000000001600030100110100000000000000000000000000011170000000000000000000000000000000000000000000000000000000000000000000000000000000009d270000000000000000000000000000000000000000000000000000000000000002000000000000000000000000000000000000000000000000000000000000006000000000000000000000000000000000000000000000000000000000000000160003010011010000000000000000000000000001117000000000000000000000",
          "blockHash": "0x5334e44e401cdb7b9bdc9c3691be9527ecbd0bc3514faa82555d3d927b0d0dc9",
          "blockNumber": "0x86ace7",
          "transactionHash": "0x585a26d83d795f9b5a9df5a8026f81fd3ae4858b30ea95837d44d07096cf6050",
          "transactionIndex": "0xf9",
          "logIndex": "0x1be",
          "removed": false
        }
      ],
      "logsBloom": "0x00000000000000000000000000000000000000000000000000000000000000000000000000000000000000000000800000000000000000000020400000000000000000000000000000000000000000000000000000000000000000000000000000000000000000000000000000000000000000000000000000000000000000000000000000000000000000000000000000000000000000000000000000080000000000000000000000000000000000000000000000000000000000000000000000000000000000000000000002000000000000000000000000000000000000000000000000000000000000000800000000000000000000000000000000000000",
      "type": "0x2",
      "transactionHash": "0x585a26d83d795f9b5a9df5a8026f81fd3ae4858b30ea95837d44d07096cf6050",
      "transactionIndex": "0xf9",
      "blockHash": "0x5334e44e401cdb7b9bdc9c3691be9527ecbd0bc3514faa82555d3d927b0d0dc9",
      "blockNumber": "0x86ace7",
      "gasUsed": "0x14e25",
      "effectiveGasPrice": "0x3ff70c8e",
      "blobGasUsed": "0x0",
      "from": "0x9990cfb1feb7f47297f54bef4d4ebedf6c5463a3",
      "to": "0xa18e571f91ab58889c348e1764fbabf622ab89b5",
      "contractAddress": null
    },
    {
      "status": "0x1",
      "cumulativeGasUsed": "0x1a5bd85",
      "logs": [
        {
          "address": "0x7198ca5eaefe7416d4f3900b58ff1bea33771a65",
          "topics": [
            "0x2f8788117e7eff1d82e926ec794901d17c78024a50270940304540a733656f0d",
            "0xd7c4527c99f13bf6a80d3bc15ebce76f7f8256ab4fbf63363b10858db314c978",
            "0x000000000000000000000000a18e571f91ab58889c348e1764fbabf622ab89b5",
            "0x0000000000000000000000009990cfb1feb7f47297f54bef4d4ebedf6c5463a3"
          ],
          "data": "0x",
          "blockHash": "0x5334e44e401cdb7b9bdc9c3691be9527ecbd0bc3514faa82555d3d927b0d0dc9",
          "blockNumber": "0x86ace7",
          "transactionHash": "0x51fe4c283a41cdd2af17744cffc91611e19c36cf9644e3834c02f73311241679",
          "transactionIndex": "0xff",
          "logIndex": "0x1cf",
          "removed": false
        }
      ],
      "logsBloom": "0x00000004000000000200000000000080000000000400000000000000000000000000000000000040000000000000000000000000000000000000000000000000000000000000000000000000000002000000000000000000000100000000000000000000000000000000000000000000080000000000000000000000000000000000000000000000000080000000000000000000000000000000001000000000000000000000000000000000000000000000000000000000001000000000000000800000000000000000000000004000000040000000000100000000000000000000000000000000000000000000000000000000000000000000000000000000",
      "type": "0x2",
      "transactionHash": "0x51fe4c283a41cdd2af17744cffc91611e19c36cf9644e3834c02f73311241679",
      "transactionIndex": "0xff",
      "blockHash": "0x5334e44e401cdb7b9bdc9c3691be9527ecbd0bc3514faa82555d3d927b0d0dc9",
      "blockNumber": "0x86ace7",
      "gasUsed": "0xddb5",
      "effectiveGasPrice": "0x3ff70c8e",
      "blobGasUsed": "0x0",
      "from": "0x9990cfb1feb7f47297f54bef4d4ebedf6c5463a3",
      "to": "0x7198ca5eaefe7416d4f3900b58ff1bea33771a65",
      "contractAddress": null
    }
  ],
  "libraries": [],
  "pending": [],
  "returns": {},
  "timestamp": 1753287554,
  "chain": 11155111,
  "commit": "f010e5c"
}