{
  "transactions": [
    {
      "hash": "0x2c40d48c20aeb6357a9b5b009c736c803449555d8907e0d74c79191dac730110",
      "transactionType": "CALL",
      "contractName": null,
      "contractAddress": "0x2f8b13a6882e4c4ea52d6588510fb7dfbd09e4e5",
      "function": "setPeer(uint32,bytes32)",
      "arguments": [
        "40231",
        "0x000000000000000000000000435e2293653a3e80c93290803faa0d152181b835"
      ],
      "transaction": {
        "from": "0x316a389d7f0ac46b19fcbe7076f125566f09cebc",
        "to": "0x2f8b13a6882e4c4ea52d6588510fb7dfbd09e4e5",
        "gas": "0x104a9",
        "value": "0x0",
        "input": "0x3400288b0000000000000000000000000000000000000000000000000000000000009d27000000000000000000000000435e2293653a3e80c93290803faa0d152181b835",
        "nonce": "0xd",
        "chainId": "0xaa36a7"
      },
      "additionalContracts": [],
      "isFixedGasLimit": false
    }
  ],
  "receipts": [
    {
      "status": "0x1",
      "cumulativeGasUsed": "0x1703312",
      "logs": [
        {
          "address": "0x2f8b13a6882e4c4ea52d6588510fb7dfbd09e4e5",
          "topics": [
            "0x238399d427b947898edb290f5ff0f9109849b1c3ba196a42e35f00c50a54b98b"
          ],
          "data": "0x0000000000000000000000000000000000000000000000000000000000009d27000000000000000000000000435e2293653a3e80c93290803faa0d152181b835",
          "blockHash": "0x6c6ac94bf95c269396af4a7f9b4c52d059b3eab79c225bef8e713dee195b3abb",
          "blockNumber": "0x7ee901",
          "transactionHash": "0x2c40d48c20aeb6357a9b5b009c736c803449555d8907e0d74c79191dac730110",
          "transactionIndex": "0xb7",
          "logIndex": "0x1d3",
          "removed": false
        }
      ],
      "logsBloom": "0x00000000000000000000000000000000000000000000000000000000000000000000000000000000000000000000000040000000000000000800000000001000000000000000000000000000000000000000000000000000000000000000000000000000000000000000000001000000000000000000000000000000000000000000000000000000000000000000000000000000000000000000000000000000000000000000000000000000000000000000000000000000000002000000000000000000000000000000000000000000000000000000000000040000000000000000000000000000000000000000000000000000000000000000000000000000",
      "type": "0x2",
      "transactionHash": "0x2c40d48c20aeb6357a9b5b009c736c803449555d8907e0d74c79191dac730110",
      "transactionIndex": "0xb7",
      "blockHash": "0x6c6ac94bf95c269396af4a7f9b4c52d059b3eab79c225bef8e713dee195b3abb",
      "blockNumber": "0x7ee901",
      "gasUsed": "0xbcb7",
      "effectiveGasPrice": "0x360883f",
      "from": "0x316a389d7f0ac46b19fcbe7076f125566f09cebc",
      "to": "0x2f8b13a6882e4c4ea52d6588510fb7dfbd09e4e5",
      "contractAddress": null
    }
  ],
  "libraries": [],
  "pending": [],
  "returns": {},
  "timestamp": 1747128601,
  "chain": 11155111,
  "commit": "91c7a70"
}