{
  "transactions": [
    {
      "hash": "0x4458d24099a6052a35da8622a9926aeb30412b09579936b6351502bf9f1cb1a9",
      "transactionType": "CALL",
      "contractName": null,
      "contractAddress": "0x2f8b13a6882e4c4ea52d6588510fb7dfbd09e4e5",
      "function": "setPeer(uint32,bytes32)",
      "arguments": [
        "40231",
        "0x000000000000000000000000126e7f4ff12869b9171c60bcfeac5b6e698b0fcc"
      ],
      "transaction": {
        "from": "0x316a389d7f0ac46b19fcbe7076f125566f09cebc",
        "to": "0x2f8b13a6882e4c4ea52d6588510fb7dfbd09e4e5",
        "gas": "0xb24d",
        "value": "0x0",
        "input": "0x3400288b0000000000000000000000000000000000000000000000000000000000009d27000000000000000000000000126e7f4ff12869b9171c60bcfeac5b6e698b0fcc",
        "nonce": "0x17",
        "chainId": "0xaa36a7"
      },
      "additionalContracts": [],
      "isFixedGasLimit": false
    }
  ],
  "receipts": [
    {
      "status": "0x1",
      "cumulativeGasUsed": "0x163beb7",
      "logs": [
        {
          "address": "0x2f8b13a6882e4c4ea52d6588510fb7dfbd09e4e5",
          "topics": [
            "0x238399d427b947898edb290f5ff0f9109849b1c3ba196a42e35f00c50a54b98b"
          ],
          "data": "0x0000000000000000000000000000000000000000000000000000000000009d27000000000000000000000000126e7f4ff12869b9171c60bcfeac5b6e698b0fcc",
          "blockHash": "0x3533658a8fea0f376b4c2e22309e91ee447d2e91397a88ceea411e60209569e6",
          "blockNumber": "0x7f1df5",
          "blockTimestamp": "0x6825a668",
          "transactionHash": "0x4458d24099a6052a35da8622a9926aeb30412b09579936b6351502bf9f1cb1a9",
          "transactionIndex": "0x83",
          "logIndex": "0x1c3",
          "removed": false
        }
      ],
      "logsBloom": "0x00000000000000000000000000000000000000000000000000000000000000000000000000000000000000000000000040000000000000000800000000001000000000000000000000000000000000000000000000000000000000000000000000000000000000000000000001000000000000000000000000000000000000000000000000000000000000000000000000000000000000000000000000000000000000000000000000000000000000000000000000000000000002000000000000000000000000000000000000000000000000000000000000040000000000000000000000000000000000000000000000000000000000000000000000000000",
      "type": "0x2",
      "transactionHash": "0x4458d24099a6052a35da8622a9926aeb30412b09579936b6351502bf9f1cb1a9",
      "transactionIndex": "0x83",
      "blockHash": "0x3533658a8fea0f376b4c2e22309e91ee447d2e91397a88ceea411e60209569e6",
      "blockNumber": "0x7f1df5",
      "gasUsed": "0x79eb",
      "effectiveGasPrice": "0x208ed0c8b",
      "from": "0x316a389d7f0ac46b19fcbe7076f125566f09cebc",
      "to": "0x2f8b13a6882e4c4ea52d6588510fb7dfbd09e4e5",
      "contractAddress": null
    }
  ],
  "libraries": [],
  "pending": [],
  "returns": {},
  "timestamp": 1747297896,
  "chain": 11155111,
  "commit": "e4d5e19"
}