{
  "transactions": [
    {
      "hash": "0x6f8f39a7e2a6cfb97df0550ff9e0f6b16835ab7915c0b64bba5e851e99ba7d91",
      "transactionType": "CALL",
      "contractName": null,
      "contractAddress": "0xb560ae1dd7fdf011ead2189510ae08f2dbd168a5",
      "function": "setPeer(uint32,bytes32)",
      "arguments": [
        "40161",
        "0x000000000000000000000000a18e571f91ab58889c348e1764fbabf622ab89b5"
      ],
      "transaction": {
        "from": "0x9990cfb1feb7f47297f54bef4d4ebedf6c5463a3",
        "to": "0xb560ae1dd7fdf011ead2189510ae08f2dbd168a5",
        "gas": "0xab2b",
        "value": "0x0",
        "input": "0x3400288b0000000000000000000000000000000000000000000000000000000000009ce1000000000000000000000000a18e571f91ab58889c348e1764fbabf622ab89b5",
        "nonce": "0xb0",
        "chainId": "0x66eee"
      },
      "additionalContracts": [],
      "isFixedGasLimit": false
    },
    {
      "hash": "0x34f39a33a1afccda137a3f80bf32ecb94bb22323893e8334721ea27270c2d087",
      "transactionType": "CALL",
      "contractName": null,
      "contractAddress": "0xb560ae1dd7fdf011ead2189510ae08f2dbd168a5",
      "function": "setEnforcedOptions((uint32,uint16,bytes)[])",
      "arguments": [
        "[(40161, 1, 0x00030100110100000000000000000000000000011170), (40161, 2, 0x00030100110100000000000000000000000000011170)]"
      ],
      "transaction": {
        "from": "0x9990cfb1feb7f47297f54bef4d4ebedf6c5463a3",
        "to": "0xb560ae1dd7fdf011ead2189510ae08f2dbd168a5",
        "gas": "0xedf9",
        "value": "0x0",
        "input": "0xb98bd07000000000000000000000000000000000000000000000000000000000000000200000000000000000000000000000000000000000000000000000000000000002000000000000000000000000000000000000000000000000000000000000004000000000000000000000000000000000000000000000000000000000000000e00000000000000000000000000000000000000000000000000000000000009ce100000000000000000000000000000000000000000000000000000000000000010000000000000000000000000000000000000000000000000000000000000060000000000000000000000000000000000000000000000000000000000000001600030100110100000000000000000000000000011170000000000000000000000000000000000000000000000000000000000000000000000000000000009ce10000000000000000000000000000000000000000000000000000000000000002000000000000000000000000000000000000000000000000000000000000006000000000000000000000000000000000000000000000000000000000000000160003010011010000000000000000000000000001117000000000000000000000",
        "nonce": "0xb1",
        "chainId": "0x66eee"
      },
      "additionalContracts": [],
      "isFixedGasLimit": false
    },
    {
      "hash": "0x66e6874ab6aac46b97dfef69135e89346ebc9ea246bbf8d5c96bc421d068b675",
      "transactionType": "CALL",
      "contractName": null,
      "contractAddress": "0x9923ed3cbd90cd78b910c475f9a731a6e0b8c963",
      "function": "grantRole(bytes32,address)",
      "arguments": [
        "0xd7c4527c99f13bf6a80d3bc15ebce76f7f8256ab4fbf63363b10858db314c978",
        "0xB560ae1dD7FdF011Ead2189510ae08f2dbD168a5"
      ],
      "transaction": {
        "from": "0x9990cfb1feb7f47297f54bef4d4ebedf6c5463a3",
        "to": "0x9923ed3cbd90cd78b910c475f9a731a6e0b8c963",
        "gas": "0xb36b",
        "value": "0x0",
        "input": "0x2f2ff15dd7c4527c99f13bf6a80d3bc15ebce76f7f8256ab4fbf63363b10858db314c978000000000000000000000000b560ae1dd7fdf011ead2189510ae08f2dbd168a5",
        "nonce": "0xb2",
        "chainId": "0x66eee"
      },
      "additionalContracts": [],
      "isFixedGasLimit": false
    }
  ],
  "receipts": [
    {
      "status": "0x1",
      "cumulativeGasUsed": "0x4ba14",
      "logs": [
        {
          "address": "0xb560ae1dd7fdf011ead2189510ae08f2dbd168a5",
          "topics": [
            "0x238399d427b947898edb290f5ff0f9109849b1c3ba196a42e35f00c50a54b98b"
          ],
          "data": "0x0000000000000000000000000000000000000000000000000000000000009ce1000000000000000000000000a18e571f91ab58889c348e1764fbabf622ab89b5",
          "blockHash": "0xb6d824100b66e401d8cf6e861925112de1c678aa6c0791e893e92408ffcc07b9",
          "blockNumber": "0xa86a62b",
          "transactionHash": "0x6f8f39a7e2a6cfb97df0550ff9e0f6b16835ab7915c0b64bba5e851e99ba7d91",
          "transactionIndex": "0x3",
          "logIndex": "0xc",
          "removed": false
        }
      ],
      "logsBloom": "0x00000000000000000000000000000000000000000000000000000000000000000000000000000000000080000000000000000000000000000800000000000000000000000000000000000000000000000000000000000000000000000000000000000000000000000000000000000000000000000000000000000000000000000000000000000000000000000000000000000000000000000000000000000000000000000000000000000000000000000000000000000000000002000000000000000000000000000000000000000000000000000000000000040000400000000000000000000000000000000080000000000000000000000000000000000000",
      "type": "0x2",
      "transactionHash": "0x6f8f39a7e2a6cfb97df0550ff9e0f6b16835ab7915c0b64bba5e851e99ba7d91",
      "transactionIndex": "0x3",
      "blockHash": "0xb6d824100b66e401d8cf6e861925112de1c678aa6c0791e893e92408ffcc07b9",
      "blockNumber": "0xa86a62b",
      "gasUsed": "0x81d2",
      "effectiveGasPrice": "0x5f5e100",
      "blobGasUsed": "0x0",
      "from": "0x9990cfb1feb7f47297f54bef4d4ebedf6c5463a3",
      "to": "0xb560ae1dd7fdf011ead2189510ae08f2dbd168a5",
      "contractAddress": null,
      "gasUsedForL1": "0x192",
      "l1BlockNumber": "0x86addc"
    },
    {
      "status": "0x1",
      "cumulativeGasUsed": "0x2df07",
      "logs": [
        {
          "address": "0xb560ae1dd7fdf011ead2189510ae08f2dbd168a5",
          "topics": [
            "0xbe4864a8e820971c0247f5992e2da559595f7bf076a21cb5928d443d2a13b674"
          ],
          "data": "0x00000000000000000000000000000000000000000000000000000000000000200000000000000000000000000000000000000000000000000000000000000002000000000000000000000000000000000000000000000000000000000000004000000000000000000000000000000000000000000000000000000000000000e00000000000000000000000000000000000000000000000000000000000009ce100000000000000000000000000000000000000000000000000000000000000010000000000000000000000000000000000000000000000000000000000000060000000000000000000000000000000000000000000000000000000000000001600030100110100000000000000000000000000011170000000000000000000000000000000000000000000000000000000000000000000000000000000009ce10000000000000000000000000000000000000000000000000000000000000002000000000000000000000000000000000000000000000000000000000000006000000000000000000000000000000000000000000000000000000000000000160003010011010000000000000000000000000001117000000000000000000000",
          "blockHash": "0xc7c25c4d1868310f79de342843bf353f243ab7a0671524f0d3854b027b0dc809",
          "blockNumber": "0xa86a634",
          "transactionHash": "0x34f39a33a1afccda137a3f80bf32ecb94bb22323893e8334721ea27270c2d087",
          "transactionIndex": "0x3",
          "logIndex": "0x4",
          "removed": false
        }
      ],
      "logsBloom": "0x00000000000000000000000000000000000000000000000000000000000000000000000000000000000080000000000000000000000000000000400000000000000000000000000000000000000000000000000000000000000000000000000000000000000000000000000000000000000000000000000000000000000000000000000000000000000000000000000000000000000000000000000000080000000000000000000000000000000000000000000000000000000000000000000000000000000000000000000002000000000000000000000000000000400000000000000000000000000000000080000000000000000000000000000000000000",
      "type": "0x2",
      "transactionHash": "0x34f39a33a1afccda137a3f80bf32ecb94bb22323893e8334721ea27270c2d087",
      "transactionIndex": "0x3",
      "blockHash": "0xc7c25c4d1868310f79de342843bf353f243ab7a0671524f0d3854b027b0dc809",
      "blockNumber": "0xa86a634",
      "gasUsed": "0xb4fd",
      "effectiveGasPrice": "0x5f5e100",
      "blobGasUsed": "0x0",
      "from": "0x9990cfb1feb7f47297f54bef4d4ebedf6c5463a3",
      "to": "0xb560ae1dd7fdf011ead2189510ae08f2dbd168a5",
      "contractAddress": null,
      "gasUsedForL1": "0x250",
      "l1BlockNumber": "0x86addc"
    },
    {
      "status": "0x1",
      "cumulativeGasUsed": "0xbdd6c",
      "logs": [],
      "logsBloom": "0x00000000000000000000000000000000000000000000000000000000000000000000000000000000000000000000000000000000000000000000000000000000000000000000000000000000000000000000000000000000000000000000000000000000000000000000000000000000000000000000000000000000000000000000000000000000000000000000000000000000000000000000000000000000000000000000000000000000000000000000000000000000000000000000000000000000000000000000000000000000000000000000000000000000000000000000000000000000000000000000000000000000000000000000000000000000",
      "type": "0x2",
      "transactionHash": "0x66e6874ab6aac46b97dfef69135e89346ebc9ea246bbf8d5c96bc421d068b675",
      "transactionIndex": "0x4",
      "blockHash": "0xfac5ad55f553e994a0b4edd2ab3b1447871e514ec257f0f65e32d0ba75e84385",
      "blockNumber": "0xa86a63d",
      "gasUsed": "0x8828",
      "effectiveGasPrice": "0x5f5e100",
      "blobGasUsed": "0x0",
      "from": "0x9990cfb1feb7f47297f54bef4d4ebedf6c5463a3",
      "to": "0x9923ed3cbd90cd78b910c475f9a731a6e0b8c963",
      "contractAddress": null,
      "gasUsedForL1": "0x192",
      "l1BlockNumber": "0x86adde"
    }
  ],
  "libraries": [],
  "pending": [],
  "returns": {},
  "timestamp": 1753290531,
  "chain": 421614,
  "commit": "4db4790"
}