{
  "transactions": [
    {
      "hash": "0xbd09bbb0ab405f22bba29dfa7e3655fd65056118262c9444970d553566fc30b2",
      "transactionType": "CALL",
      "contractName": null,
      "contractAddress": "0x62fa14c85638eb81ef38121591dcb8e4e12ce9fc",
      "function": "setPeer(uint32,bytes32)",
      "arguments": [
        "40161",
        "0x00000000000000000000000068cc55914cbc2630c2c60f49531e4b70b33399ff"
      ],
      "transaction": {
        "from": "0x29d9fb59587af02ae3bee909babdd0ac75580009",
        "to": "0x62fa14c85638eb81ef38121591dcb8e4e12ce9fc",
        "gas": "0x1128f",
        "value": "0x0",
        "input": "0x3400288b0000000000000000000000000000000000000000000000000000000000009ce100000000000000000000000068cc55914cbc2630c2c60f49531e4b70b33399ff",
        "nonce": "0x3b",
        "chainId": "0x66eee"
      },
      "additionalContracts": [],
      "isFixedGasLimit": false
    }
  ],
  "receipts": [
    {
      "status": "0x1",
      "cumulativeGasUsed": "0x5160c",
      "logs": [
        {
          "address": "0x62fa14c85638eb81ef38121591dcb8e4e12ce9fc",
          "topics": [
            "0x238399d427b947898edb290f5ff0f9109849b1c3ba196a42e35f00c50a54b98b"
          ],
          "data": "0x0000000000000000000000000000000000000000000000000000000000009ce100000000000000000000000068cc55914cbc2630c2c60f49531e4b70b33399ff",
          "blockHash": "0x5aa5e9b88d47410fef030f612a4b90d9d2ad59913dadf2919ac2df2a456309a8",
          "blockNumber": "0xa2367e1",
          "transactionHash": "0xbd09bbb0ab405f22bba29dfa7e3655fd65056118262c9444970d553566fc30b2",
          "transactionIndex": "0x4",
          "logIndex": "0x9",
          "removed": false
        }
      ],
      "logsBloom": "0x00000000000000000000000000000000000000000000000000000000000000000000000000000000000000000000000000000000000000000800000000000000000000000000000000000000000000000000000000000000000000000000000000000000000000000000000000000000000000000000000000000000000000000000200000000000000000000000000000000000000000000000000000000004000000000000000000000000000000000000000000000000000002000000000000000000000000000000000000000000000000000000000000040000000000000000000000000000000000000000000000080000000000000000000000000000",
      "type": "0x2",
      "transactionHash": "0xbd09bbb0ab405f22bba29dfa7e3655fd65056118262c9444970d553566fc30b2",
      "transactionIndex": "0x4",
      "blockHash": "0x5aa5e9b88d47410fef030f612a4b90d9d2ad59913dadf2919ac2df2a456309a8",
      "blockNumber": "0xa2367e1",
      "gasUsed": "0xcf92",
      "effectiveGasPrice": "0x5f5e100",
      "blobGasUsed": "0x0",
      "from": "0x29d9fb59587af02ae3bee909babdd0ac75580009",
      "to": "0x62fa14c85638eb81ef38121591dcb8e4e12ce9fc",
      "contractAddress": null,
      "gasUsedForL1": "0x1d6",
      "l1BlockNumber": "0x84971c"
    }
  ],
  "libraries": [],
  "pending": [],
  "returns": {},
  "timestamp": 1751620020,
  "chain": 421614,
  "commit": "bb43c60"
}