{
  "transactions": [
    {
      "hash": "0x40a6a09356b2e4fa1a31ef546dd3fd1bfb02d4fd70b8e743c9219e033124891b",
      "transactionType": "CALL",
      "contractName": null,
      "contractAddress": "0xf3503fd58a95dc5e24b39a440dac86cfc537d99c",
      "function": "setPeer(uint32,bytes32)",
      "arguments": [
        "40161",
        "0x000000000000000000000000b778a2bc50b441baadb1a2833eacaeff900d5ca7"
      ],
      "transaction": {
        "from": "0x9990cfb1feb7f47297f54bef4d4ebedf6c5463a3",
        "to": "0xf3503fd58a95dc5e24b39a440dac86cfc537d99c",
        "gas": "0x10fcd",
        "value": "0x0",
        "input": "0x3400288b0000000000000000000000000000000000000000000000000000000000009ce1000000000000000000000000b778a2bc50b441baadb1a2833eacaeff900d5ca7",
        "nonce": "0x87",
        "chainId": "0x66eee"
      },
      "additionalContracts": [],
      "isFixedGasLimit": false
    },
    {
      "hash": "0x0f0fa8802dbaeba6f45d28f9026aba67b0d457c032df865da496a2ce5054e966",
      "transactionType": "CALL",
      "contractName": null,
      "contractAddress": "0xf3503fd58a95dc5e24b39a440dac86cfc537d99c",
      "function": "setEnforcedOptions((uint32,uint16,bytes)[])",
      "arguments": [
        "[(40161, 1, 0x00030100110100000000000000000000000000011170), (40161, 2, 0x00030100110100000000000000000000000000011170)]"
      ],
      "transaction": {
        "from": "0x9990cfb1feb7f47297f54bef4d4ebedf6c5463a3",
        "to": "0xf3503fd58a95dc5e24b39a440dac86cfc537d99c",
        "gas": "0x1b713",
        "value": "0x0",
        "input": "0xb98bd07000000000000000000000000000000000000000000000000000000000000000200000000000000000000000000000000000000000000000000000000000000002000000000000000000000000000000000000000000000000000000000000004000000000000000000000000000000000000000000000000000000000000000e00000000000000000000000000000000000000000000000000000000000009ce100000000000000000000000000000000000000000000000000000000000000010000000000000000000000000000000000000000000000000000000000000060000000000000000000000000000000000000000000000000000000000000001600030100110100000000000000000000000000011170000000000000000000000000000000000000000000000000000000000000000000000000000000009ce10000000000000000000000000000000000000000000000000000000000000002000000000000000000000000000000000000000000000000000000000000006000000000000000000000000000000000000000000000000000000000000000160003010011010000000000000000000000000001117000000000000000000000",
        "nonce": "0x88",
        "chainId": "0x66eee"
      },
      "additionalContracts": [],
      "isFixedGasLimit": false
    },
    {
      "hash": "0xbc9ff1b1e6cca32a72c77158de25f5d98816ac64c8c2dbe857eb41a75ef053db",
      "transactionType": "CALL",
      "contractName": "ERC1967Proxy",
      "contractAddress": "0x5ba6945ef517f455783d4978a6f1761bc49f97f8",
      "function": null,
      "arguments": null,
      "transaction": {
        "from": "0x9990cfb1feb7f47297f54bef4d4ebedf6c5463a3",
        "to": "0x5ba6945ef517f455783d4978a6f1761bc49f97f8",
        "gas": "0x123fc",
        "value": "0x0",
        "input": "0x2f2ff15dd7c4527c99f13bf6a80d3bc15ebce76f7f8256ab4fbf63363b10858db314c978000000000000000000000000f3503fd58a95dc5e24b39a440dac86cfc537d99c",
        "nonce": "0x89",
        "chainId": "0x66eee"
      },
      "additionalContracts": [],
      "isFixedGasLimit": false
    }
  ],
  "receipts": [
    {
      "status": "0x1",
      "cumulativeGasUsed": "0xcdfc",
      "logs": [
        {
          "address": "0xf3503fd58a95dc5e24b39a440dac86cfc537d99c",
          "topics": [
            "0x238399d427b947898edb290f5ff0f9109849b1c3ba196a42e35f00c50a54b98b"
          ],
          "data": "0x0000000000000000000000000000000000000000000000000000000000009ce1000000000000000000000000b778a2bc50b441baadb1a2833eacaeff900d5ca7",
          "blockHash": "0x40268092f77f7f8a26acb5bcfb5d1332306c487db40bb0292b07280eed9e17bf",
          "blockNumber": "0xa66e9cf",
          "transactionHash": "0x40a6a09356b2e4fa1a31ef546dd3fd1bfb02d4fd70b8e743c9219e033124891b",
          "transactionIndex": "0x1",
          "logIndex": "0x0",
          "removed": false
        }
      ],
      "logsBloom": "0x00000000000000000000000000000000000000000000000000000000000000000000000000000000000000000000000000000000000000400800000000000000000000000000000000000000000000000000000000000000000000000000000000000000000000000000000000000000000000000080000000000000000000000000000000000000000000000000000000000000000000000000000000000000000000000000000000000000000000000000000001000000000002000000000000000000000000000000000000000000000000000000000000040000000000000000000000000000000000000000000000000000000000000000000000000000",
      "type": "0x2",
      "transactionHash": "0x40a6a09356b2e4fa1a31ef546dd3fd1bfb02d4fd70b8e743c9219e033124891b",
      "transactionIndex": "0x1",
      "blockHash": "0x40268092f77f7f8a26acb5bcfb5d1332306c487db40bb0292b07280eed9e17bf",
      "blockNumber": "0xa66e9cf",
      "gasUsed": "0xcdfc",
      "effectiveGasPrice": "0x5f5e100",
      "blobGasUsed": "0x0",
      "from": "0x9990cfb1feb7f47297f54bef4d4ebedf6c5463a3",
      "to": "0xf3503fd58a95dc5e24b39a440dac86cfc537d99c",
      "contractAddress": null,
      "gasUsedForL1": "0x0",
      "l1BlockNumber": "0x860a15"
    },
    {
      "status": "0x1",
      "cumulativeGasUsed": "0x23fcd",
      "logs": [
        {
          "address": "0xf3503fd58a95dc5e24b39a440dac86cfc537d99c",
          "topics": [
            "0xbe4864a8e820971c0247f5992e2da559595f7bf076a21cb5928d443d2a13b674"
          ],
          "data": "0x00000000000000000000000000000000000000000000000000000000000000200000000000000000000000000000000000000000000000000000000000000002000000000000000000000000000000000000000000000000000000000000004000000000000000000000000000000000000000000000000000000000000000e00000000000000000000000000000000000000000000000000000000000009ce100000000000000000000000000000000000000000000000000000000000000010000000000000000000000000000000000000000000000000000000000000060000000000000000000000000000000000000000000000000000000000000001600030100110100000000000000000000000000011170000000000000000000000000000000000000000000000000000000000000000000000000000000009ce10000000000000000000000000000000000000000000000000000000000000002000000000000000000000000000000000000000000000000000000000000006000000000000000000000000000000000000000000000000000000000000000160003010011010000000000000000000000000001117000000000000000000000",
          "blockHash": "0xaf79b205bedf83da01c59b784d50c2721d1477fa2e46836ad1020a01cee8cfc6",
          "blockNumber": "0xa66e9d2",
          "transactionHash": "0x0f0fa8802dbaeba6f45d28f9026aba67b0d457c032df865da496a2ce5054e966",
          "transactionIndex": "0x2",
          "logIndex": "0x1",
          "removed": false
        }
      ],
      "logsBloom": "0x00000000000000000000000000000000000000000000000000000000000000000000000000000000000000000000000000000000000000400000400000000000000000000000000000000000000000000000000000000000000000000000000000000000000000000000000000000000000000000080000000000000000000000000000000000000000000000000000000000000000000000000000000080000000000000000000000000000000000000000000001000000000000000000000000000000000000000000000002000000000000000000000000000000000000000000000000000000000000000000000000000000000000000000000000000000",
      "type": "0x2",
      "transactionHash": "0x0f0fa8802dbaeba6f45d28f9026aba67b0d457c032df865da496a2ce5054e966",
      "transactionIndex": "0x2",
      "blockHash": "0xaf79b205bedf83da01c59b784d50c2721d1477fa2e46836ad1020a01cee8cfc6",
      "blockNumber": "0xa66e9d2",
      "gasUsed": "0x14e26",
      "effectiveGasPrice": "0x5f5e100",
      "blobGasUsed": "0x0",
      "from": "0x9990cfb1feb7f47297f54bef4d4ebedf6c5463a3",
      "to": "0xf3503fd58a95dc5e24b39a440dac86cfc537d99c",
      "contractAddress": null,
      "gasUsedForL1": "0x1",
      "l1BlockNumber": "0x860a15"
    },
    {
      "status": "0x1",
      "cumulativeGasUsed": "0xb3315",
      "logs": [
        {
          "address": "0x5ba6945ef517f455783d4978a6f1761bc49f97f8",
          "topics": [
            "0x2f8788117e7eff1d82e926ec794901d17c78024a50270940304540a733656f0d",
            "0xd7c4527c99f13bf6a80d3bc15ebce76f7f8256ab4fbf63363b10858db314c978",
            "0x000000000000000000000000f3503fd58a95dc5e24b39a440dac86cfc537d99c",
            "0x0000000000000000000000009990cfb1feb7f47297f54bef4d4ebedf6c5463a3"
          ],
          "data": "0x",
          "blockHash": "0xfeb1faad465155e6ea38c023434c86cd4281286ff11de411232ae38e211e39da",
          "blockNumber": "0xa66e9d8",
          "transactionHash": "0xbc9ff1b1e6cca32a72c77158de25f5d98816ac64c8c2dbe857eb41a75ef053db",
          "transactionIndex": "0x4",
          "logIndex": "0xb",
          "removed": false
        }
      ],
      "logsBloom": "0x00000104000000000000000000000000000000000400000000000000000000000000000000000000000000000000000000000000000000000000000000000000000000002000000000000000000000000000000000000000000100000000000000000000000000000000000000000000000000000000100000000000000000000000000000000000000000000000000000000400000000000000001000000000000000000000000000000000000000000000000000000000001000000000000000800080000000000000000100004000000040000000000100000000000000000000000000000000000000000000000000000000000000000000000000000000",
      "type": "0x2",
      "transactionHash": "0xbc9ff1b1e6cca32a72c77158de25f5d98816ac64c8c2dbe857eb41a75ef053db",
      "transactionIndex": "0x4",
      "blockHash": "0xfeb1faad465155e6ea38c023434c86cd4281286ff11de411232ae38e211e39da",
      "blockNumber": "0xa66e9d8",
      "gasUsed": "0xdd73",
      "effectiveGasPrice": "0x5f5e100",
      "blobGasUsed": "0x0",
      "from": "0x9990cfb1feb7f47297f54bef4d4ebedf6c5463a3",
      "to": "0x5ba6945ef517f455783d4978a6f1761bc49f97f8",
      "contractAddress": null,
      "gasUsedForL1": "0x0",
      "l1BlockNumber": "0x860a16"
    }
  ],
  "libraries": [],
  "pending": [],
  "returns": {},
  "timestamp": 1752767869064,
  "chain": 421614,
  "commit": "c2ed408"
}