{
  "transactions": [
    {
      "hash": "0x49872b3402c482c2c9f30307e4948a1febd8201e02fa0f65597e3524d5fcdab2",
      "transactionType": "CALL",
      "contractName": null,
      "contractAddress": "0xb560ae1dd7fdf011ead2189510ae08f2dbd168a5",
      "function": "setPeer(uint32,bytes32)",
      "arguments": [
        "40161",
        "0x000000000000000000000000a18e571f91ab58889c348e1764fbabf622ab89b5"
      ],
      "transaction": {
        "from": "0x9990cfb1feb7f47297f54bef4d4ebedf6c5463a3",
        "to": "0xb560ae1dd7fdf011ead2189510ae08f2dbd168a5",
        "gas": "0xacc4",
        "value": "0x0",
        "input": "0x3400288b0000000000000000000000000000000000000000000000000000000000009ce1000000000000000000000000a18e571f91ab58889c348e1764fbabf622ab89b5",
        "nonce": "0xad",
        "chainId": "0x66eee"
      },
      "additionalContracts": [],
      "isFixedGasLimit": false
    },
    {
      "hash": "0x924c6a5cc040b3a9002cbbcbb78498b91bd0a7db5168ca50a3c0a61a4147d223",
      "transactionType": "CALL",
      "contractName": null,
      "contractAddress": "0xb560ae1dd7fdf011ead2189510ae08f2dbd168a5",
      "function": "setEnforcedOptions((uint32,uint16,bytes)[])",
      "arguments": [
        "[(40161, 1, 0x00030100110100000000000000000000000000011170), (40161, 2, 0x00030100110100000000000000000000000000011170)]"
      ],
      "transaction": {
        "from": "0x9990cfb1feb7f47297f54bef4d4ebedf6c5463a3",
        "to": "0xb560ae1dd7fdf011ead2189510ae08f2dbd168a5",
        "gas": "0xf042",
        "value": "0x0",
        "input": "0xb98bd07000000000000000000000000000000000000000000000000000000000000000200000000000000000000000000000000000000000000000000000000000000002000000000000000000000000000000000000000000000000000000000000004000000000000000000000000000000000000000000000000000000000000000e00000000000000000000000000000000000000000000000000000000000009ce100000000000000000000000000000000000000000000000000000000000000010000000000000000000000000000000000000000000000000000000000000060000000000000000000000000000000000000000000000000000000000000001600030100110100000000000000000000000000011170000000000000000000000000000000000000000000000000000000000000000000000000000000009ce10000000000000000000000000000000000000000000000000000000000000002000000000000000000000000000000000000000000000000000000000000006000000000000000000000000000000000000000000000000000000000000000160003010011010000000000000000000000000001117000000000000000000000",
        "nonce": "0xae",
        "chainId": "0x66eee"
      },
      "additionalContracts": [],
      "isFixedGasLimit": false
    },
    {
      "hash": "0x275b8be47947e23a5800d01615be23cf3d456469ed8b4c4888186a5dbeb37551",
      "transactionType": "CALL",
      "contractName": null,
      "contractAddress": "0x9923ed3cbd90cd78b910c475f9a731a6e0b8c963",
      "function": "grantRole(bytes32,address)",
      "arguments": [
        "0xd7c4527c99f13bf6a80d3bc15ebce76f7f8256ab4fbf63363b10858db314c978",
        "0xB560ae1dD7FdF011Ead2189510ae08f2dbD168a5"
      ],
      "transaction": {
        "from": "0x9990cfb1feb7f47297f54bef4d4ebedf6c5463a3",
        "to": "0x9923ed3cbd90cd78b910c475f9a731a6e0b8c963",
        "gas": "0xb506",
        "value": "0x0",
        "input": "0x2f2ff15dd7c4527c99f13bf6a80d3bc15ebce76f7f8256ab4fbf63363b10858db314c978000000000000000000000000b560ae1dd7fdf011ead2189510ae08f2dbd168a5",
        "nonce": "0xaf",
        "chainId": "0x66eee"
      },
      "additionalContracts": [],
      "isFixedGasLimit": false
    }
  ],
  "receipts": [
    {
      "status": "0x1",
      "cumulativeGasUsed": "0x1bffb9f",
      "logs": [
        {
          "address": "0xb560ae1dd7fdf011ead2189510ae08f2dbd168a5",
          "topics": [
            "0x238399d427b947898edb290f5ff0f9109849b1c3ba196a42e35f00c50a54b98b"
          ],
          "data": "0x0000000000000000000000000000000000000000000000000000000000009ce1000000000000000000000000a18e571f91ab58889c348e1764fbabf622ab89b5",
          "blockHash": "0xc0adeb801ab23bd33f8c2e2ed12e770fc811bc7dfabe850e8a8b5444f3dd5e3e",
          "blockNumber": "0xa868f75",
          "transactionHash": "0x49872b3402c482c2c9f30307e4948a1febd8201e02fa0f65597e3524d5fcdab2",
          "transactionIndex": "0x13",
          "logIndex": "0x32",
          "removed": false
        }
      ],
      "logsBloom": "0x00000000000000000000000000000000000000000000000000000000000000000000000000000000000080000000000000000000000000000800000000000000000000000000000000000000000000000000000000000000000000000000000000000000000000000000000000000000000000000000000000000000000000000000000000000000000000000000000000000000000000000000000000000000000000000000000000000000000000000000000000000000000002000000000000000000000000000000000000000000000000000000000000040000400000000000000000000000000000000080000000000000000000000000000000000000",
      "type": "0x2",
      "transactionHash": "0x49872b3402c482c2c9f30307e4948a1febd8201e02fa0f65597e3524d5fcdab2",
      "transactionIndex": "0x13",
      "blockHash": "0xc0adeb801ab23bd33f8c2e2ed12e770fc811bc7dfabe850e8a8b5444f3dd5e3e",
      "blockNumber": "0xa868f75",
      "gasUsed": "0x82c6",
      "effectiveGasPrice": "0x5f5e100",
      "blobGasUsed": "0x0",
      "from": "0x9990cfb1feb7f47297f54bef4d4ebedf6c5463a3",
      "to": "0xb560ae1dd7fdf011ead2189510ae08f2dbd168a5",
      "contractAddress": null,
      "gasUsedForL1": "0x286",
      "l1BlockNumber": "0x86ad48"
    },
    {
      "status": "0x1",
      "cumulativeGasUsed": "0xb627",
      "logs": [
        {
          "address": "0xb560ae1dd7fdf011ead2189510ae08f2dbd168a5",
          "topics": [
            "0xbe4864a8e820971c0247f5992e2da559595f7bf076a21cb5928d443d2a13b674"
          ],
          "data": "0x00000000000000000000000000000000000000000000000000000000000000200000000000000000000000000000000000000000000000000000000000000002000000000000000000000000000000000000000000000000000000000000004000000000000000000000000000000000000000000000000000000000000000e00000000000000000000000000000000000000000000000000000000000009ce100000000000000000000000000000000000000000000000000000000000000010000000000000000000000000000000000000000000000000000000000000060000000000000000000000000000000000000000000000000000000000000001600030100110100000000000000000000000000011170000000000000000000000000000000000000000000000000000000000000000000000000000000009ce10000000000000000000000000000000000000000000000000000000000000002000000000000000000000000000000000000000000000000000000000000006000000000000000000000000000000000000000000000000000000000000000160003010011010000000000000000000000000001117000000000000000000000",
          "blockHash": "0x31df678f8600b410e8968991d1d0b1d5bbc5505c4db3e7a4bb1a5d6f1b6f865a",
          "blockNumber": "0xa868f9c",
          "transactionHash": "0x924c6a5cc040b3a9002cbbcbb78498b91bd0a7db5168ca50a3c0a61a4147d223",
          "transactionIndex": "0x1",
          "logIndex": "0x0",
          "removed": false
        }
      ],
      "logsBloom": "0x00000000000000000000000000000000000000000000000000000000000000000000000000000000000080000000000000000000000000000000400000000000000000000000000000000000000000000000000000000000000000000000000000000000000000000000000000000000000000000000000000000000000000000000000000000000000000000000000000000000000000000000000000080000000000000000000000000000000000000000000000000000000000000000000000000000000000000000000002000000000000000000000000000000400000000000000000000000000000000080000000000000000000000000000000000000",
      "type": "0x2",
      "transactionHash": "0x924c6a5cc040b3a9002cbbcbb78498b91bd0a7db5168ca50a3c0a61a4147d223",
      "transactionIndex": "0x1",
      "blockHash": "0x31df678f8600b410e8968991d1d0b1d5bbc5505c4db3e7a4bb1a5d6f1b6f865a",
      "blockNumber": "0xa868f9c",
      "gasUsed": "0xb627",
      "effectiveGasPrice": "0x6601480",
      "blobGasUsed": "0x0",
      "from": "0x9990cfb1feb7f47297f54bef4d4ebedf6c5463a3",
      "to": "0xb560ae1dd7fdf011ead2189510ae08f2dbd168a5",
      "contractAddress": null,
      "gasUsedForL1": "0x37a",
      "l1BlockNumber": "0x86ad49"
    },
    {
      "status": "0x1",
      "cumulativeGasUsed": "0x8902",
      "logs": [],
      "logsBloom": "0x00000000000000000000000000000000000000000000000000000000000000000000000000000000000000000000000000000000000000000000000000000000000000000000000000000000000000000000000000000000000000000000000000000000000000000000000000000000000000000000000000000000000000000000000000000000000000000000000000000000000000000000000000000000000000000000000000000000000000000000000000000000000000000000000000000000000000000000000000000000000000000000000000000000000000000000000000000000000000000000000000000000000000000000000000000000",
      "type": "0x2",
      "transactionHash": "0x275b8be47947e23a5800d01615be23cf3d456469ed8b4c4888186a5dbeb37551",
      "transactionIndex": "0x1",
      "blockHash": "0xe276a444e9693b5195da47b8cef8b2d9a3773d7f33371b44c48bb14436e9eb8f",
      "blockNumber": "0xa868fa8",
      "gasUsed": "0x8902",
      "effectiveGasPrice": "0x637cc00",
      "blobGasUsed": "0x0",
      "from": "0x9990cfb1feb7f47297f54bef4d4ebedf6c5463a3",
      "to": "0x9923ed3cbd90cd78b910c475f9a731a6e0b8c963",
      "contractAddress": null,
      "gasUsedForL1": "0x26c",
      "l1BlockNumber": "0x86ad49"
    }
  ],
  "libraries": [],
  "pending": [],
  "returns": {},
  "timestamp": 1753288749,
  "chain": 421614,
  "commit": "f34580d"
}