{
  "transactions": [
    {
      "hash": "0x9da74bc45279b0477d20af8552a912cfb7b5adaac680b8cbb6dd12f6a91eecb9",
      "transactionType": "CALL",
      "contractName": null,
      "contractAddress": "0x4fce023890f5c9acdb04645b2801ff89793dd84e",
      "function": "setPeer(uint32,bytes32)",
      "arguments": [
        "40161",
        "0x000000000000000000000000cf9a304c10bcfb7f00b290b6b6efa7db071b4d0f"
      ],
      "transaction": {
        "from": "0x9990cfb1feb7f47297f54bef4d4ebedf6c5463a3",
        "to": "0x4fce023890f5c9acdb04645b2801ff89793dd84e",
        "gas": "0x10fa7",
        "value": "0x0",
        "input": "0x3400288b0000000000000000000000000000000000000000000000000000000000009ce1000000000000000000000000cf9a304c10bcfb7f00b290b6b6efa7db071b4d0f",
        "nonce": "0x79",
        "chainId": "0x66eee"
      },
      "additionalContracts": [],
      "isFixedGasLimit": false
    },
    {
      "hash": "0x8537da79de4e40f6e74cd9f604a9a612499a6e5a7fcfbe0021bbe6107ec32f60",
      "transactionType": "CALL",
      "contractName": null,
      "contractAddress": "0x4fce023890f5c9acdb04645b2801ff89793dd84e",
      "function": "setEnforcedOptions((uint32,uint16,bytes)[])",
      "arguments": [
        "[(40161, 2, 0x00030100110100000000000000000000000000011170)]"
      ],
      "transaction": {
        "from": "0x9990cfb1feb7f47297f54bef4d4ebedf6c5463a3",
        "to": "0x4fce023890f5c9acdb04645b2801ff89793dd84e",
        "gas": "0x12ad6",
        "value": "0x0",
        "input": "0xb98bd0700000000000000000000000000000000000000000000000000000000000000020000000000000000000000000000000000000000000000000000000000000000100000000000000000000000000000000000000000000000000000000000000200000000000000000000000000000000000000000000000000000000000009ce10000000000000000000000000000000000000000000000000000000000000002000000000000000000000000000000000000000000000000000000000000006000000000000000000000000000000000000000000000000000000000000000160003010011010000000000000000000000000001117000000000000000000000",
        "nonce": "0x7a",
        "chainId": "0x66eee"
      },
      "additionalContracts": [],
      "isFixedGasLimit": false
    },
    {
      "hash": "0x707a76982239b5f737c94696572b56b896a16b04fe886bd7110ac793c9f07a5a",
      "transactionType": "CALL",
      "contractName": null,
      "contractAddress": "0x84391e46f519131c66719dddf9be48a0a7808116",
      "function": "grantRole(bytes32,address)",
      "arguments": [
        "0xd7c4527c99f13bf6a80d3bc15ebce76f7f8256ab4fbf63363b10858db314c978",
        "0x4FcE023890F5c9aCdb04645b2801fF89793DD84e"
      ],
      "transaction": {
        "from": "0x9990cfb1feb7f47297f54bef4d4ebedf6c5463a3",
        "to": "0x84391e46f519131c66719dddf9be48a0a7808116",
        "gas": "0x12400",
        "value": "0x0",
        "input": "0x2f2ff15dd7c4527c99f13bf6a80d3bc15ebce76f7f8256ab4fbf63363b10858db314c9780000000000000000000000004fce023890f5c9acdb04645b2801ff89793dd84e",
        "nonce": "0x7b",
        "chainId": "0x66eee"
      },
      "additionalContracts": [],
      "isFixedGasLimit": false
    }
  ],
  "receipts": [
    {
      "status": "0x1",
      "cumulativeGasUsed": "0x28b78",
      "logs": [
        {
          "address": "0x4fce023890f5c9acdb04645b2801ff89793dd84e",
          "topics": [
            "0x238399d427b947898edb290f5ff0f9109849b1c3ba196a42e35f00c50a54b98b"
          ],
          "data": "0x0000000000000000000000000000000000000000000000000000000000009ce1000000000000000000000000cf9a304c10bcfb7f00b290b6b6efa7db071b4d0f",
          "blockHash": "0xa656bb18f191fdde85be98870e850515e7b931853c1b0c81555614dabc744168",
          "blockNumber": "0xa37bc86",
          "transactionHash": "0x9da74bc45279b0477d20af8552a912cfb7b5adaac680b8cbb6dd12f6a91eecb9",
          "transactionIndex": "0x2",
          "logIndex": "0x4",
          "removed": false
        }
      ],
      "logsBloom": "0x20000000000000000000000000000000000000000000000000000000000000000000000000000000000000000000000000000000000000004800000000000000000000000000000000000000000000000000000000000000000000000000000000000000000000000000000000000000000000000000000000000000000000000000000000000000000000000000000000000000000000000000000000000000000000000000000000000000000000000000000000000000000002000000000000000000000000000000000000000000000000000000000000040200000000000000000000000000000000000000000000000000000000000000000000000000",
      "type": "0x2",
      "transactionHash": "0x9da74bc45279b0477d20af8552a912cfb7b5adaac680b8cbb6dd12f6a91eecb9",
      "transactionIndex": "0x2",
      "blockHash": "0xa656bb18f191fdde85be98870e850515e7b931853c1b0c81555614dabc744168",
      "blockNumber": "0xa37bc86",
      "gasUsed": "0xcdde",
      "effectiveGasPrice": "0x5f5e100",
      "blobGasUsed": "0x0",
      "from": "0x9990cfb1feb7f47297f54bef4d4ebedf6c5463a3",
      "to": "0x4fce023890f5c9acdb04645b2801ff89793dd84e",
      "contractAddress": null,
      "gasUsedForL1": "0x2",
      "l1BlockNumber": "0x8505c1"
    },
    {
      "status": "0x1",
      "cumulativeGasUsed": "0x2a04c",
      "logs": [
        {
          "address": "0x4fce023890f5c9acdb04645b2801ff89793dd84e",
          "topics": [
            "0xbe4864a8e820971c0247f5992e2da559595f7bf076a21cb5928d443d2a13b674"
          ],
          "data": "0x0000000000000000000000000000000000000000000000000000000000000020000000000000000000000000000000000000000000000000000000000000000100000000000000000000000000000000000000000000000000000000000000200000000000000000000000000000000000000000000000000000000000009ce10000000000000000000000000000000000000000000000000000000000000002000000000000000000000000000000000000000000000000000000000000006000000000000000000000000000000000000000000000000000000000000000160003010011010000000000000000000000000001117000000000000000000000",
          "blockHash": "0x8511ffc774fb4c387dc3a57a69e9cbf832af6ea6b5bf430b82a72293ba58b464",
          "blockNumber": "0xa37bc8f",
          "transactionHash": "0x8537da79de4e40f6e74cd9f604a9a612499a6e5a7fcfbe0021bbe6107ec32f60",
          "transactionIndex": "0x2",
          "logIndex": "0x4",
          "removed": false
        }
      ],
      "logsBloom": "0x20000000000000000000000000000000000000000000000000000000000000000000000000000000000000000000000000000000000000004000400000000000000000000000000000000000000000000000000000000000000000000000000000000000000000000000000000000000000000000000000000000000000000000000000000000000000000000000000000000000000000000000000000080000000000000000000000000000000000000000000000000000000000000000000000000000000000000000000002000000000000000000000000000200000000000000000000000000000000000000000000000000000000000000000000000000",
      "type": "0x2",
      "transactionHash": "0x8537da79de4e40f6e74cd9f604a9a612499a6e5a7fcfbe0021bbe6107ec32f60",
      "transactionIndex": "0x2",
      "blockHash": "0x8511ffc774fb4c387dc3a57a69e9cbf832af6ea6b5bf430b82a72293ba58b464",
      "blockNumber": "0xa37bc8f",
      "gasUsed": "0xe2b2",
      "effectiveGasPrice": "0x5f5e100",
      "blobGasUsed": "0x0",
      "from": "0x9990cfb1feb7f47297f54bef4d4ebedf6c5463a3",
      "to": "0x4fce023890f5c9acdb04645b2801ff89793dd84e",
      "contractAddress": null,
      "gasUsedForL1": "0x3",
      "l1BlockNumber": "0x8505c1"
    },
    {
      "status": "0x1",
      "cumulativeGasUsed": "0x96287",
      "logs": [
        {
          "address": "0x84391e46f519131c66719dddf9be48a0a7808116",
          "topics": [
            "0x2f8788117e7eff1d82e926ec794901d17c78024a50270940304540a733656f0d",
            "0xd7c4527c99f13bf6a80d3bc15ebce76f7f8256ab4fbf63363b10858db314c978",
            "0x0000000000000000000000004fce023890f5c9acdb04645b2801ff89793dd84e",
            "0x0000000000000000000000009990cfb1feb7f47297f54bef4d4ebedf6c5463a3"
          ],
          "data": "0x",
          "blockHash": "0x2a2f59626c5e5a7707a897a7b5f07aa7950733ed014fe5f4284b66632c0cf5b6",
          "blockNumber": "0xa37bc96",
          "transactionHash": "0x707a76982239b5f737c94696572b56b896a16b04fe886bd7110ac793c9f07a5a",
          "transactionIndex": "0x6",
          "logIndex": "0x11",
          "removed": false
        }
      ],
      "logsBloom": "0x00000004000000000000000000000000000000400400000000000000000000000000000000000000000000000000000000000000000000000000000000000000000000000000000000000000000000000004000000200000000100000000000000000000000000000000000000000000008000000000000000000000000000000000000000000000000000000000000000000000000000000000001000000000000000000008000000000000000000000000000000000000001000000000000000800000000000000000000000004200000040000000000100000000000000000000000000000000000000000000000000000000000000000000000000000000",
      "type": "0x2",
      "transactionHash": "0x707a76982239b5f737c94696572b56b896a16b04fe886bd7110ac793c9f07a5a",
      "transactionIndex": "0x6",
      "blockHash": "0x2a2f59626c5e5a7707a897a7b5f07aa7950733ed014fe5f4284b66632c0cf5b6",
      "blockNumber": "0xa37bc96",
      "gasUsed": "0xdd75",
      "effectiveGasPrice": "0x5f5e100",
      "blobGasUsed": "0x0",
      "from": "0x9990cfb1feb7f47297f54bef4d4ebedf6c5463a3",
      "to": "0x84391e46f519131c66719dddf9be48a0a7808116",
      "contractAddress": null,
      "gasUsedForL1": "0x2",
      "l1BlockNumber": "0x8505c1"
    }
  ],
  "libraries": [],
  "pending": [],
  "returns": {},
  "timestamp": 1751960406,
  "chain": 421614,
  "commit": "166593c"
}