{
  "transactions": [
    {
      "hash": "0x89e0bb876f89bd18a0d82723c3cb41643c4ba4cf11915148e24f4a1da117a9a7",
      "transactionType": "CALL",
      "contractName": null,
      "contractAddress": "0x26a738b6d33ef4d94ff084d3552961b8f00639cd",
      "function": "approve(address,uint256)",
      "arguments": [
        "0x2F8b13A6882e4c4ea52d6588510fB7DFbD09E4E5",
        "5000000000"
      ],
      "transaction": {
        "from": "0x316a389d7f0ac46b19fcbe7076f125566f09cebc",
        "to": "0x26a738b6d33ef4d94ff084d3552961b8f00639cd",
        "gas": "0xf889",
        "value": "0x0",
        "input": "0x095ea7b30000000000000000000000002f8b13a6882e4c4ea52d6588510fb7dfbd09e4e5000000000000000000000000000000000000000000000000000000012a05f200",
        "nonce": "0x18",
        "chainId": "0xaa36a7"
      },
      "additionalContracts": [],
      "isFixedGasLimit": false
    },
    {
      "hash": "0xa800c83a369385ee4dee650d1f4dd050190102882fe272b078604541709e0ed7",
      "transactionType": "CALL",
      "contractName": null,
      "contractAddress": "0x2f8b13a6882e4c4ea52d6588510fb7dfbd09e4e5",
      "function": "send((uint32,bytes32,uint256,uint256,bytes,bytes,bytes),(uint256,uint256),address)",
      "arguments": [
        "(40231, 0x000000000000000000000000316a389d7f0ac46b19fcbe7076f125566f09cebc, 5000000000, 4500000000, 0x0003010021010000000000000000000000000000fde800000000000000000000000000000000, 0x, 0x)",
        "(31846673131952, 0)",
        "0x1804c8AB1F12E6bbf3894d4083f33e07309d1f38"
      ],
      "transaction": {
        "from": "0x316a389d7f0ac46b19fcbe7076f125566f09cebc",
        "to": "0x2f8b13a6882e4c4ea52d6588510fb7dfbd09e4e5",
        "gas": "0x5ab20",
        "value": "0x1cf6e1a3a9b0",
        "input": "0xc7c7f5b3000000000000000000000000000000000000000000000000000000000000008000000000000000000000000000000000000000000000000000001cf6e1a3a9b000000000000000000000000000000000000000000000000000000000000000000000000000000000000000001804c8ab1f12e6bbf3894d4083f33e07309d1f380000000000000000000000000000000000000000000000000000000000009d27000000000000000000000000316a389d7f0ac46b19fcbe7076f125566f09cebc000000000000000000000000000000000000000000000000000000012a05f200000000000000000000000000000000000000000000000000000000010c388d0000000000000000000000000000000000000000000000000000000000000000e00000000000000000000000000000000000000000000000000000000000000140000000000000000000000000000000000000000000000000000000000000016000000000000000000000000000000000000000000000000000000000000000260003010021010000000000000000000000000000fde800000000000000000000000000000000000000000000000000000000000000000000000000000000000000000000000000000000000000000000000000000000000000000000000000000000000000000000000000000000000000000000000000000000000000000000",
        "nonce": "0x19",
        "chainId": "0xaa36a7"
      },
      "additionalContracts": [],
      "isFixedGasLimit": false
    }
  ],
  "receipts": [
    {
      "status": "0x1",
      "cumulativeGasUsed": "0x1bf1c48",
      "logs": [
        {
          "address": "0x26a738b6d33ef4d94ff084d3552961b8f00639cd",
          "topics": [
            "0x8c5be1e5ebec7d5bd14f71427d1e84f3dd0314c0f7b2291e5b200ac8c7c3b925",
            "0x000000000000000000000000316a389d7f0ac46b19fcbe7076f125566f09cebc",
            "0x0000000000000000000000002f8b13a6882e4c4ea52d6588510fb7dfbd09e4e5"
          ],
          "data": "0x000000000000000000000000000000000000000000000000000000012a05f200",
          "blockHash": "0xbe6248c9459dd67e994011a3c4776cc4c4820547e3ea4e9dc36d75aef5d3f436",
          "blockNumber": "0x7f1dfa",
          "transactionHash": "0x89e0bb876f89bd18a0d82723c3cb41643c4ba4cf11915148e24f4a1da117a9a7",
          "transactionIndex": "0x9d",
          "logIndex": "0x1ba",
          "removed": false
        }
      ],
      "logsBloom": "0x00000000000000000002000000100000000000000000000000000000000000000000000000000000000000000000000000000000000000000000000000200000000000000000000000000000000000000000000002000000000000000000000000000000000000000000000000000000000000000080020000000000000000000000000200000000000000000000000000000000000000000000000000000000020000000000000000000000000000000000000000000000000000000000000000000800000000000000000000000000000000000000000000000000000000000010000000000000000000020000000000000000000200000000000000000000",
      "type": "0x2",
      "transactionHash": "0x89e0bb876f89bd18a0d82723c3cb41643c4ba4cf11915148e24f4a1da117a9a7",
      "transactionIndex": "0x9d",
      "blockHash": "0xbe6248c9459dd67e994011a3c4776cc4c4820547e3ea4e9dc36d75aef5d3f436",
      "blockNumber": "0x7f1dfa",
      "gasUsed": "0xb3f0",
      "effectiveGasPrice": "0x247a21ff7",
      "from": "0x316a389d7f0ac46b19fcbe7076f125566f09cebc",
      "to": "0x26a738b6d33ef4d94ff084d3552961b8f00639cd",
      "contractAddress": null
    },
    {
      "status": "0x1",
      "cumulativeGasUsed": "0x142500a",
      "logs": [
        {
          "address": "0x26a738b6d33ef4d94ff084d3552961b8f00639cd",
          "topics": [
            "0xddf252ad1be2c89b69c2b068fc378daa952ba7f163c4a11628f55a4df523b3ef",
            "0x000000000000000000000000316a389d7f0ac46b19fcbe7076f125566f09cebc",
            "0x0000000000000000000000002f8b13a6882e4c4ea52d6588510fb7dfbd09e4e5"
          ],
          "data": "0x000000000000000000000000000000000000000000000000000000012a05f200",
          "blockHash": "0x75b043ade8a137b6616a180a9a2b35636b211eb441d98a41501022a6eac53f54",
          "blockNumber": "0x7f1dff",
          "transactionHash": "0xa800c83a369385ee4dee650d1f4dd050190102882fe272b078604541709e0ed7",
          "transactionIndex": "0x89",
          "logIndex": "0x1f9",
          "removed": false
        },
        {
          "address": "0xcc1ae8cf5d3904cef3360a9532b477529b177cce",
          "topics": [
            "0x61ed099e74a97a1d7f8bb0952a88ca8b7b8ebd00c126ea04671f92a81213318a"
          ],
          "data": "0x000000000000000000000000718b92b5cb0a5552039b593faf724d182a881eda00000000000000000000000000000000000000000000000000001070d53e2000",
          "blockHash": "0x75b043ade8a137b6616a180a9a2b35636b211eb441d98a41501022a6eac53f54",
          "blockNumber": "0x7f1dff",
          "transactionHash": "0xa800c83a369385ee4dee650d1f4dd050190102882fe272b078604541709e0ed7",
          "transactionIndex": "0x89",
          "logIndex": "0x1fa",
          "removed": false
        },
        {
          "address": "0xcc1ae8cf5d3904cef3360a9532b477529b177cce",
          "topics": [
            "0x07ea52d82345d6e838192107d8fd7123d9c2ec8e916cd0aad13fd2b60db24644"
          ],
          "data": "0x000000000000000000000000000000000000000000000000000000000000006000000000000000000000000000000000000000000000000000000000000000a000000000000000000000000000000000000000000000000000000000000000c000000000000000000000000000000000000000000000000000000000000000010000000000000000000000008eebf8b423b73bfca51a1db4b7354aa0bfca91930000000000000000000000000000000000000000000000000000000000000000000000000000000000000000000000000000000000000000000000000000000100000000000000000000000000000000000000000000000000000c860c6589b0",
          "blockHash": "0x75b043ade8a137b6616a180a9a2b35636b211eb441d98a41501022a6eac53f54",
          "blockNumber": "0x7f1dff",
          "transactionHash": "0xa800c83a369385ee4dee650d1f4dd050190102882fe272b078604541709e0ed7",
          "transactionIndex": "0x89",
          "logIndex": "0x1fb",
          "removed": false
        },
        {
          "address": "0x6edce65403992e310a62460808c4b910d972f10f",
          "topics": [
            "0x1ab700d4ced0c005b164c0f789fd09fcbb0156d4c2041b8a3bfbcd961cd1567f"
          ],
          "data": "0x00000000000000000000000000000000000000000000000000000000000000600000000000000000000000000000000000000000000000000000000000000120000000000000000000000000cc1ae8cf5d3904cef3360a9532b477529b177cce000000000000000000000000000000000000000000000000000000000000009901000000000000000100009ce10000000000000000000000002f8b13a6882e4c4ea52d6588510fb7dfbd09e4e500009d27000000000000000000000000126e7f4ff12869b9171c60bcfeac5b6e698b0fcc2d88266c98c169815e21d995ebab379e1832749c87a8f7fbe1c51502e4ca0351000000000000000000000000316a389d7f0ac46b19fcbe7076f125566f09cebc00000000004c4b400000000000000000000000000000000000000000000000000000000000000000000000000000260003010021010000000000000000000000000000fde8000000000000000000000000000000000000000000000000000000000000000000000000000000000000",
          "blockHash": "0x75b043ade8a137b6616a180a9a2b35636b211eb441d98a41501022a6eac53f54",
          "blockNumber": "0x7f1dff",
          "transactionHash": "0xa800c83a369385ee4dee650d1f4dd050190102882fe272b078604541709e0ed7",
          "transactionIndex": "0x89",
          "logIndex": "0x1fc",
          "removed": false
        },
        {
          "address": "0x2f8b13a6882e4c4ea52d6588510fb7dfbd09e4e5",
          "topics": [
            "0x85496b760a4b7f8d66384b9df21b381f5d1b1e79f229a47aaf4c232edc2fe59a",
            "0x2d88266c98c169815e21d995ebab379e1832749c87a8f7fbe1c51502e4ca0351",
            "0x000000000000000000000000316a389d7f0ac46b19fcbe7076f125566f09cebc"
          ],
          "data": "0x0000000000000000000000000000000000000000000000000000000000009d27000000000000000000000000000000000000000000000000000000012a05f200000000000000000000000000000000000000000000000000000000012a05f200",
          "blockHash": "0x75b043ade8a137b6616a180a9a2b35636b211eb441d98a41501022a6eac53f54",
          "blockNumber": "0x7f1dff",
          "transactionHash": "0xa800c83a369385ee4dee650d1f4dd050190102882fe272b078604541709e0ed7",
          "transactionIndex": "0x89",
          "logIndex": "0x1fd",
          "removed": false
        }
      ],
      "logsBloom": "0x00000000000000000002000000100000000000000000000000000000000100000000000000000000200000000000000040000000000000000000000000001000000002000000000000000008000000000000000002000000000000000000000000020000000000008200000001000000000000000080020000000010000000000000000200000020000000080000000000000000000000000000000000000000000000008000000000100000000000002000000000400000000440000000000000000802000000000000000080000000010000080000000000000000000000000000040000000000000000020000002000000000008200000000000000000020",
      "type": "0x2",
      "transactionHash": "0xa800c83a369385ee4dee650d1f4dd050190102882fe272b078604541709e0ed7",
      "transactionIndex": "0x89",
      "blockHash": "0x75b043ade8a137b6616a180a9a2b35636b211eb441d98a41501022a6eac53f54",
      "blockNumber": "0x7f1dff",
      "gasUsed": "0x3e039",
      "effectiveGasPrice": "0x283438f9d",
      "from": "0x316a389d7f0ac46b19fcbe7076f125566f09cebc",
      "to": "0x2f8b13a6882e4c4ea52d6588510fb7dfbd09e4e5",
      "contractAddress": null
    }
  ],
  "libraries": [],
  "pending": [],
  "returns": {},
  "timestamp": 1747298018,
  "chain": 11155111,
  "commit": "e4d5e19"
}