{
  "transactions": [
    {
      "hash": "0x6b852b249592c1896baceedf9a5e73ee283e70882f234b909cd9c8b961a3d44e",
      "transactionType": "CALL",
      "contractName": null,
      "contractAddress": "0x26a738b6d33ef4d94ff084d3552961b8f00639cd",
      "function": "approve(address,uint256)",
      "arguments": [
        "0x2F8b13A6882e4c4ea52d6588510fB7DFbD09E4E5",
        "5000000000"
      ],
      "transaction": {
        "from": "0x316a389d7f0ac46b19fcbe7076f125566f09cebc",
        "to": "0x26a738b6d33ef4d94ff084d3552961b8f00639cd",
        "gas": "0xf889",
        "value": "0x0",
        "input": "0x095ea7b30000000000000000000000002f8b13a6882e4c4ea52d6588510fb7dfbd09e4e5000000000000000000000000000000000000000000000000000000012a05f200",
        "nonce": "0x13",
        "chainId": "0xaa36a7"
      },
      "additionalContracts": [],
      "isFixedGasLimit": false
    },
    {
      "hash": null,
      "transactionType": "CALL",
      "contractName": null,
      "contractAddress": "0x2f8b13a6882e4c4ea52d6588510fb7dfbd09e4e5",
      "function": "send((uint32,bytes32,uint256,uint256,bytes,bytes,bytes),(uint256,uint256),address)",
      "arguments": [
        "(40231, 0x000000000000000000000000316a389d7f0ac46b19fcbe7076f125566f09cebc, 5000000000, 4500000000, 0x0003010021010000000000000000000000000000fde800000000000000000000000000000000, 0x, 0x)",
        "(31846673131952, 0)",
        "0x1804c8AB1F12E6bbf3894d4083f33e07309d1f38"
      ],
      "transaction": {
        "from": "0x316a389d7f0ac46b19fcbe7076f125566f09cebc",
        "to": "0x2f8b13a6882e4c4ea52d6588510fb7dfbd09e4e5",
        "gas": "0x4fe3d",
        "value": "0x1cf6e1a3a9b0",
        "input": "0xc7c7f5b3000000000000000000000000000000000000000000000000000000000000008000000000000000000000000000000000000000000000000000001cf6e1a3a9b000000000000000000000000000000000000000000000000000000000000000000000000000000000000000001804c8ab1f12e6bbf3894d4083f33e07309d1f380000000000000000000000000000000000000000000000000000000000009d27000000000000000000000000316a389d7f0ac46b19fcbe7076f125566f09cebc000000000000000000000000000000000000000000000000000000012a05f200000000000000000000000000000000000000000000000000000000010c388d0000000000000000000000000000000000000000000000000000000000000000e00000000000000000000000000000000000000000000000000000000000000140000000000000000000000000000000000000000000000000000000000000016000000000000000000000000000000000000000000000000000000000000000260003010021010000000000000000000000000000fde800000000000000000000000000000000000000000000000000000000000000000000000000000000000000000000000000000000000000000000000000000000000000000000000000000000000000000000000000000000000000000000000000000000000000000000",
        "nonce": "0x14",
        "chainId": "0xaa36a7"
      },
      "additionalContracts": [],
      "isFixedGasLimit": false
    }
  ],
  "receipts": [],
  "libraries": [],
  "pending": [
    "0x6b852b249592c1896baceedf9a5e73ee283e70882f234b909cd9c8b961a3d44e"
  ],
  "returns": {},
  "timestamp": 1747236058,
  "chain": 11155111,
  "commit": "c400115"
}