{
  "transactions": [
    {
      "hash": "0xfc17448b9e6c913ca383781d2ef3eab7db922cb41267e35dfc4ed04f25ad60d3",
      "transactionType": "CALL",
      "contractName": null,
      "contractAddress": "0x26a738b6d33ef4d94ff084d3552961b8f00639cd",
      "function": "approve(address,uint256)",
      "arguments": [
        "0x2F8b13A6882e4c4ea52d6588510fB7DFbD09E4E5",
        "1000000000"
      ],
      "transaction": {
        "from": "0x316a389d7f0ac46b19fcbe7076f125566f09cebc",
        "to": "0x26a738b6d33ef4d94ff084d3552961b8f00639cd",
        "gas": "0xf879",
        "value": "0x0",
        "input": "0x095ea7b30000000000000000000000002f8b13a6882e4c4ea52d6588510fb7dfbd09e4e5000000000000000000000000000000000000000000000000000000003b9aca00",
        "nonce": "0xe",
        "chainId": "0xaa36a7"
      },
      "additionalContracts": [],
      "isFixedGasLimit": false
    },
    {
      "hash": "0xb99f7d1c6b75f09fbf4a79cfb0b2fde4e94f94d30215163e33610a60246f83d1",
      "transactionType": "CALL",
      "contractName": null,
      "contractAddress": "0x2f8b13a6882e4c4ea52d6588510fb7dfbd09e4e5",
      "function": "send((uint32,bytes32,uint256,uint256,bytes,bytes,bytes),(uint256,uint256),address)",
      "arguments": [
        "(40231, 0x000000000000000000000000316a389d7f0ac46b19fcbe7076f125566f09cebc, 1000000000, 900000000, 0x0003010021010000000000000000000000000000fde800000000000000000000000000000000, 0x, 0x)",
        "(31846673131952, 0)",
        "0x1804c8AB1F12E6bbf3894d4083f33e07309d1f38"
      ],
      "transaction": {
        "from": "0x316a389d7f0ac46b19fcbe7076f125566f09cebc",
        "to": "0x2f8b13a6882e4c4ea52d6588510fb7dfbd09e4e5",
        "gas": "0x5b6a3",
        "value": "0x1cf6e1a3a9b0",
        "input": "0xc7c7f5b3000000000000000000000000000000000000000000000000000000000000008000000000000000000000000000000000000000000000000000001cf6e1a3a9b000000000000000000000000000000000000000000000000000000000000000000000000000000000000000001804c8ab1f12e6bbf3894d4083f33e07309d1f380000000000000000000000000000000000000000000000000000000000009d27000000000000000000000000316a389d7f0ac46b19fcbe7076f125566f09cebc000000000000000000000000000000000000000000000000000000003b9aca000000000000000000000000000000000000000000000000000000000035a4e90000000000000000000000000000000000000000000000000000000000000000e00000000000000000000000000000000000000000000000000000000000000140000000000000000000000000000000000000000000000000000000000000016000000000000000000000000000000000000000000000000000000000000000260003010021010000000000000000000000000000fde800000000000000000000000000000000000000000000000000000000000000000000000000000000000000000000000000000000000000000000000000000000000000000000000000000000000000000000000000000000000000000000000000000000000000000000",
        "nonce": "0xf",
        "chainId": "0xaa36a7"
      },
      "additionalContracts": [],
      "isFixedGasLimit": false
    }
  ],
  "receipts": [
    {
      "status": "0x1",
      "cumulativeGasUsed": "0x179aff7",
      "logs": [
        {
          "address": "0x26a738b6d33ef4d94ff084d3552961b8f00639cd",
          "topics": [
            "0x8c5be1e5ebec7d5bd14f71427d1e84f3dd0314c0f7b2291e5b200ac8c7c3b925",
            "0x000000000000000000000000316a389d7f0ac46b19fcbe7076f125566f09cebc",
            "0x0000000000000000000000002f8b13a6882e4c4ea52d6588510fb7dfbd09e4e5"
          ],
          "data": "0x000000000000000000000000000000000000000000000000000000003b9aca00",
          "blockHash": "0x7e9662ae7055a50f8cf297990f85a9fb6b7fbc52ba91fc36691a9a48d0ccb3db",
          "blockNumber": "0x7eedbd",
          "transactionHash": "0xfc17448b9e6c913ca383781d2ef3eab7db922cb41267e35dfc4ed04f25ad60d3",
          "transactionIndex": "0x9f",
          "logIndex": "0x1dc",
          "removed": false
        }
      ],
      "logsBloom": "0x00000000000000000002000000100000000000000000000000000000000000000000000000000000000000000000000000000000000000000000000000200000000000000000000000000000000000000000000002000000000000000000000000000000000000000000000000000000000000000080020000000000000000000000000200000000000000000000000000000000000000000000000000000000020000000000000000000000000000000000000000000000000000000000000000000800000000000000000000000000000000000000000000000000000000000010000000000000000000020000000000000000000200000000000000000000",
      "type": "0x2",
      "transactionHash": "0xfc17448b9e6c913ca383781d2ef3eab7db922cb41267e35dfc4ed04f25ad60d3",
      "transactionIndex": "0x9f",
      "blockHash": "0x7e9662ae7055a50f8cf297990f85a9fb6b7fbc52ba91fc36691a9a48d0ccb3db",
      "blockNumber": "0x7eedbd",
      "gasUsed": "0xb3e4",
      "effectiveGasPrice": "0x160c9f0",
      "from": "0x316a389d7f0ac46b19fcbe7076f125566f09cebc",
      "to": "0x26a738b6d33ef4d94ff084d3552961b8f00639cd",
      "contractAddress": null
    },
    {
      "status": "0x1",
      "cumulativeGasUsed": "0x17dd2e4",
      "logs": [
        {
          "address": "0x26a738b6d33ef4d94ff084d3552961b8f00639cd",
          "topics": [
            "0xddf252ad1be2c89b69c2b068fc378daa952ba7f163c4a11628f55a4df523b3ef",
            "0x000000000000000000000000316a389d7f0ac46b19fcbe7076f125566f09cebc",
            "0x0000000000000000000000002f8b13a6882e4c4ea52d6588510fb7dfbd09e4e5"
          ],
          "data": "0x000000000000000000000000000000000000000000000000000000003b9aca00",
          "blockHash": "0x7e9662ae7055a50f8cf297990f85a9fb6b7fbc52ba91fc36691a9a48d0ccb3db",
          "blockNumber": "0x7eedbd",
          "blockTimestamp": "0x68234e80",
          "transactionHash": "0xb99f7d1c6b75f09fbf4a79cfb0b2fde4e94f94d30215163e33610a60246f83d1",
          "transactionIndex": "0xa0",
          "logIndex": "0x1dd",
          "removed": false
        },
        {
          "address": "0xcc1ae8cf5d3904cef3360a9532b477529b177cce",
          "topics": [
            "0x61ed099e74a97a1d7f8bb0952a88ca8b7b8ebd00c126ea04671f92a81213318a"
          ],
          "data": "0x000000000000000000000000718b92b5cb0a5552039b593faf724d182a881eda00000000000000000000000000000000000000000000000000001070d53e2000",
          "blockHash": "0x7e9662ae7055a50f8cf297990f85a9fb6b7fbc52ba91fc36691a9a48d0ccb3db",
          "blockNumber": "0x7eedbd",
          "blockTimestamp": "0x68234e80",
          "transactionHash": "0xb99f7d1c6b75f09fbf4a79cfb0b2fde4e94f94d30215163e33610a60246f83d1",
          "transactionIndex": "0xa0",
          "logIndex": "0x1de",
          "removed": false
        },
        {
          "address": "0xcc1ae8cf5d3904cef3360a9532b477529b177cce",
          "topics": [
            "0x07ea52d82345d6e838192107d8fd7123d9c2ec8e916cd0aad13fd2b60db24644"
          ],
          "data": "0x000000000000000000000000000000000000000000000000000000000000006000000000000000000000000000000000000000000000000000000000000000a000000000000000000000000000000000000000000000000000000000000000c000000000000000000000000000000000000000000000000000000000000000010000000000000000000000008eebf8b423b73bfca51a1db4b7354aa0bfca91930000000000000000000000000000000000000000000000000000000000000000000000000000000000000000000000000000000000000000000000000000000100000000000000000000000000000000000000000000000000000c860c6589b0",
          "blockHash": "0x7e9662ae7055a50f8cf297990f85a9fb6b7fbc52ba91fc36691a9a48d0ccb3db",
          "blockNumber": "0x7eedbd",
          "blockTimestamp": "0x68234e80",
          "transactionHash": "0xb99f7d1c6b75f09fbf4a79cfb0b2fde4e94f94d30215163e33610a60246f83d1",
          "transactionIndex": "0xa0",
          "logIndex": "0x1df",
          "removed": false
        },
        {
          "address": "0x6edce65403992e310a62460808c4b910d972f10f",
          "topics": [
            "0x1ab700d4ced0c005b164c0f789fd09fcbb0156d4c2041b8a3bfbcd961cd1567f"
          ],
          "data": "0x00000000000000000000000000000000000000000000000000000000000000600000000000000000000000000000000000000000000000000000000000000120000000000000000000000000cc1ae8cf5d3904cef3360a9532b477529b177cce000000000000000000000000000000000000000000000000000000000000009901000000000000000100009ce10000000000000000000000002f8b13a6882e4c4ea52d6588510fb7dfbd09e4e500009d27000000000000000000000000435e2293653a3e80c93290803faa0d152181b835c9d901b7486063d6b888e09f56138f03500bf5b5ee9932f27fe8c4a1f80d46a0000000000000000000000000316a389d7f0ac46b19fcbe7076f125566f09cebc00000000000f42400000000000000000000000000000000000000000000000000000000000000000000000000000260003010021010000000000000000000000000000fde8000000000000000000000000000000000000000000000000000000000000000000000000000000000000",
          "blockHash": "0x7e9662ae7055a50f8cf297990f85a9fb6b7fbc52ba91fc36691a9a48d0ccb3db",
          "blockNumber": "0x7eedbd",
          "blockTimestamp": "0x68234e80",
          "transactionHash": "0xb99f7d1c6b75f09fbf4a79cfb0b2fde4e94f94d30215163e33610a60246f83d1",
          "transactionIndex": "0xa0",
          "logIndex": "0x1e0",
          "removed": false
        },
        {
          "address": "0x2f8b13a6882e4c4ea52d6588510fb7dfbd09e4e5",
          "topics": [
            "0x85496b760a4b7f8d66384b9df21b381f5d1b1e79f229a47aaf4c232edc2fe59a",
            "0xc9d901b7486063d6b888e09f56138f03500bf5b5ee9932f27fe8c4a1f80d46a0",
            "0x000000000000000000000000316a389d7f0ac46b19fcbe7076f125566f09cebc"
          ],
          "data": "0x0000000000000000000000000000000000000000000000000000000000009d27000000000000000000000000000000000000000000000000000000003b9aca00000000000000000000000000000000000000000000000000000000003b9aca00",
          "blockHash": "0x7e9662ae7055a50f8cf297990f85a9fb6b7fbc52ba91fc36691a9a48d0ccb3db",
          "blockNumber": "0x7eedbd",
          "blockTimestamp": "0x68234e80",
          "transactionHash": "0xb99f7d1c6b75f09fbf4a79cfb0b2fde4e94f94d30215163e33610a60246f83d1",
          "transactionIndex": "0xa0",
          "logIndex": "0x1e1",
          "removed": false
        }
      ],
      "logsBloom": "0x00000000000000000002000000100000200000000000000000000000000100000000000000000000200000000000000040000000000000000000000000001000000002000000000000000008000000000000000002000000000000000000000000000000000000008200000001000000000000000080020000010010000001000000000200000020000000080000000000000000000000000000000000000000000000008000000000100000000000000000000000400000000440000000000000000802000000000000000080000000000000080000000000000000000000000000040000000000000000020000002000000000008200000000000000000020",
      "type": "0x2",
      "transactionHash": "0xb99f7d1c6b75f09fbf4a79cfb0b2fde4e94f94d30215163e33610a60246f83d1",
      "transactionIndex": "0xa0",
      "blockHash": "0x7e9662ae7055a50f8cf297990f85a9fb6b7fbc52ba91fc36691a9a48d0ccb3db",
      "blockNumber": "0x7eedbd",
      "gasUsed": "0x422ed",
      "effectiveGasPrice": "0x160c9f0",
      "from": "0x316a389d7f0ac46b19fcbe7076f125566f09cebc",
      "to": "0x2f8b13a6882e4c4ea52d6588510fb7dfbd09e4e5",
      "contractAddress": null
    }
  ],
  "libraries": [],
  "pending": [],
  "returns": {},
  "timestamp": 1747144320,
  "chain": 11155111,
  "commit": "91c7a70"
}