{
  "transactions": [
    {
      "hash": "0xc59ae49a4b39b8f089d63862f704ca7fc4b543c6f2d664bbdfe9545285933938",
      "transactionType": "CALL",
      "contractName": null,
      "contractAddress": "0x26a738b6d33ef4d94ff084d3552961b8f00639cd",
      "function": "approve(address,uint256)",
      "arguments": [
        "0x2F8b13A6882e4c4ea52d6588510fB7DFbD09E4E5",
        "10000000000000"
      ],
      "transaction": {
        "from": "0x316a389d7f0ac46b19fcbe7076f125566f09cebc",
        "to": "0x26a738b6d33ef4d94ff084d3552961b8f00639cd",
        "gas": "0xf899",
        "value": "0x0",
        "input": "0x095ea7b30000000000000000000000002f8b13a6882e4c4ea52d6588510fb7dfbd09e4e5000000000000000000000000000000000000000000000000000009184e72a000",
        "nonce": "0x10",
        "chainId": "0xaa36a7"
      },
      "additionalContracts": [],
      "isFixedGasLimit": false
    },
    {
      "hash": "0x87ee3887061683f08c76976ca53fa61b508f4c5a0778897f3440545788619ef1",
      "transactionType": "CALL",
      "contractName": null,
      "contractAddress": "0x2f8b13a6882e4c4ea52d6588510fb7dfbd09e4e5",
      "function": "send((uint32,bytes32,uint256,uint256,bytes,bytes,bytes),(uint256,uint256),address)",
      "arguments": [
        "(40231, 0x000000000000000000000000316a389d7f0ac46b19fcbe7076f125566f09cebc, 10000000000000, 9000000000000, 0x0003010021010000000000000000000000000000fde800000000000000000000000000000000, 0x, 0x)",
        "(31846673131952, 0)",
        "0x1804c8AB1F12E6bbf3894d4083f33e07309d1f38"
      ],
      "transaction": {
        "from": "0x316a389d7f0ac46b19fcbe7076f125566f09cebc",
        "to": "0x2f8b13a6882e4c4ea52d6588510fb7dfbd09e4e5",
        "gas": "0x4fe5f",
        "value": "0x1cf6e1a3a9b0",
        "input": "0xc7c7f5b3000000000000000000000000000000000000000000000000000000000000008000000000000000000000000000000000000000000000000000001cf6e1a3a9b000000000000000000000000000000000000000000000000000000000000000000000000000000000000000001804c8ab1f12e6bbf3894d4083f33e07309d1f380000000000000000000000000000000000000000000000000000000000009d27000000000000000000000000316a389d7f0ac46b19fcbe7076f125566f09cebc000000000000000000000000000000000000000000000000000009184e72a0000000000000000000000000000000000000000000000000000000082f79cd900000000000000000000000000000000000000000000000000000000000000000e00000000000000000000000000000000000000000000000000000000000000140000000000000000000000000000000000000000000000000000000000000016000000000000000000000000000000000000000000000000000000000000000260003010021010000000000000000000000000000fde800000000000000000000000000000000000000000000000000000000000000000000000000000000000000000000000000000000000000000000000000000000000000000000000000000000000000000000000000000000000000000000000000000000000000000000",
        "nonce": "0x11",
        "chainId": "0xaa36a7"
      },
      "additionalContracts": [],
      "isFixedGasLimit": false
    }
  ],
  "receipts": [
    {
      "status": "0x1",
      "cumulativeGasUsed": "0x1a80570",
      "logs": [
        {
          "address": "0x26a738b6d33ef4d94ff084d3552961b8f00639cd",
          "topics": [
            "0x8c5be1e5ebec7d5bd14f71427d1e84f3dd0314c0f7b2291e5b200ac8c7c3b925",
            "0x000000000000000000000000316a389d7f0ac46b19fcbe7076f125566f09cebc",
            "0x0000000000000000000000002f8b13a6882e4c4ea52d6588510fb7dfbd09e4e5"
          ],
          "data": "0x000000000000000000000000000000000000000000000000000009184e72a000",
          "blockHash": "0xc7118bf2ed8a96fbfeaa1c85b39b133da00b8f827bd4804e59d7484a42f852bc",
          "blockNumber": "0x7eedd5",
          "blockTimestamp": "0x68234fc4",
          "transactionHash": "0xc59ae49a4b39b8f089d63862f704ca7fc4b543c6f2d664bbdfe9545285933938",
          "transactionIndex": "0xc4",
          "logIndex": "0x1fc",
          "removed": false
        }
      ],
      "logsBloom": "0x00000000000000000002000000100000000000000000000000000000000000000000000000000000000000000000000000000000000000000000000000200000000000000000000000000000000000000000000002000000000000000000000000000000000000000000000000000000000000000080020000000000000000000000000200000000000000000000000000000000000000000000000000000000020000000000000000000000000000000000000000000000000000000000000000000800000000000000000000000000000000000000000000000000000000000010000000000000000000020000000000000000000200000000000000000000",
      "type": "0x2",
      "transactionHash": "0xc59ae49a4b39b8f089d63862f704ca7fc4b543c6f2d664bbdfe9545285933938",
      "transactionIndex": "0xc4",
      "blockHash": "0xc7118bf2ed8a96fbfeaa1c85b39b133da00b8f827bd4804e59d7484a42f852bc",
      "blockNumber": "0x7eedd5",
      "gasUsed": "0xb3fc",
      "effectiveGasPrice": "0x20d9f52",
      "from": "0x316a389d7f0ac46b19fcbe7076f125566f09cebc",
      "to": "0x26a738b6d33ef4d94ff084d3552961b8f00639cd",
      "contractAddress": null
    },
    {
      "status": "0x1",
      "cumulativeGasUsed": "0x1aba2f5",
      "logs": [
        {
          "address": "0x26a738b6d33ef4d94ff084d3552961b8f00639cd",
          "topics": [
            "0xddf252ad1be2c89b69c2b068fc378daa952ba7f163c4a11628f55a4df523b3ef",
            "0x000000000000000000000000316a389d7f0ac46b19fcbe7076f125566f09cebc",
            "0x0000000000000000000000002f8b13a6882e4c4ea52d6588510fb7dfbd09e4e5"
          ],
          "data": "0x000000000000000000000000000000000000000000000000000009184e72a000",
          "blockHash": "0xc7118bf2ed8a96fbfeaa1c85b39b133da00b8f827bd4804e59d7484a42f852bc",
          "blockNumber": "0x7eedd5",
          "transactionHash": "0x87ee3887061683f08c76976ca53fa61b508f4c5a0778897f3440545788619ef1",
          "transactionIndex": "0xc5",
          "logIndex": "0x1fd",
          "removed": false
        },
        {
          "address": "0xcc1ae8cf5d3904cef3360a9532b477529b177cce",
          "topics": [
            "0x61ed099e74a97a1d7f8bb0952a88ca8b7b8ebd00c126ea04671f92a81213318a"
          ],
          "data": "0x000000000000000000000000718b92b5cb0a5552039b593faf724d182a881eda00000000000000000000000000000000000000000000000000001070d53e2000",
          "blockHash": "0xc7118bf2ed8a96fbfeaa1c85b39b133da00b8f827bd4804e59d7484a42f852bc",
          "blockNumber": "0x7eedd5",
          "transactionHash": "0x87ee3887061683f08c76976ca53fa61b508f4c5a0778897f3440545788619ef1",
          "transactionIndex": "0xc5",
          "logIndex": "0x1fe",
          "removed": false
        },
        {
          "address": "0xcc1ae8cf5d3904cef3360a9532b477529b177cce",
          "topics": [
            "0x07ea52d82345d6e838192107d8fd7123d9c2ec8e916cd0aad13fd2b60db24644"
          ],
          "data": "0x000000000000000000000000000000000000000000000000000000000000006000000000000000000000000000000000000000000000000000000000000000a000000000000000000000000000000000000000000000000000000000000000c000000000000000000000000000000000000000000000000000000000000000010000000000000000000000008eebf8b423b73bfca51a1db4b7354aa0bfca91930000000000000000000000000000000000000000000000000000000000000000000000000000000000000000000000000000000000000000000000000000000100000000000000000000000000000000000000000000000000000c860c6589b0",
          "blockHash": "0xc7118bf2ed8a96fbfeaa1c85b39b133da00b8f827bd4804e59d7484a42f852bc",
          "blockNumber": "0x7eedd5",
          "transactionHash": "0x87ee3887061683f08c76976ca53fa61b508f4c5a0778897f3440545788619ef1",
          "transactionIndex": "0xc5",
          "logIndex": "0x1ff",
          "removed": false
        },
        {
          "address": "0x6edce65403992e310a62460808c4b910d972f10f",
          "topics": [
            "0x1ab700d4ced0c005b164c0f789fd09fcbb0156d4c2041b8a3bfbcd961cd1567f"
          ],
          "data": "0x00000000000000000000000000000000000000000000000000000000000000600000000000000000000000000000000000000000000000000000000000000120000000000000000000000000cc1ae8cf5d3904cef3360a9532b477529b177cce000000000000000000000000000000000000000000000000000000000000009901000000000000000200009ce10000000000000000000000002f8b13a6882e4c4ea52d6588510fb7dfbd09e4e500009d27000000000000000000000000435e2293653a3e80c93290803faa0d152181b835f21b924f8db2941c7fd9f6cca02caa81a748f04145309bbe2ee4665312d781b4000000000000000000000000316a389d7f0ac46b19fcbe7076f125566f09cebc00000002540be4000000000000000000000000000000000000000000000000000000000000000000000000000000260003010021010000000000000000000000000000fde8000000000000000000000000000000000000000000000000000000000000000000000000000000000000",
          "blockHash": "0xc7118bf2ed8a96fbfeaa1c85b39b133da00b8f827bd4804e59d7484a42f852bc",
          "blockNumber": "0x7eedd5",
          "transactionHash": "0x87ee3887061683f08c76976ca53fa61b508f4c5a0778897f3440545788619ef1",
          "transactionIndex": "0xc5",
          "logIndex": "0x200",
          "removed": false
        },
        {
          "address": "0x2f8b13a6882e4c4ea52d6588510fb7dfbd09e4e5",
          "topics": [
            "0x85496b760a4b7f8d66384b9df21b381f5d1b1e79f229a47aaf4c232edc2fe59a",
            "0xf21b924f8db2941c7fd9f6cca02caa81a748f04145309bbe2ee4665312d781b4",
            "0x000000000000000000000000316a389d7f0ac46b19fcbe7076f125566f09cebc"
          ],
          "data": "0x0000000000000000000000000000000000000000000000000000000000009d27000000000000000000000000000000000000000000000000000009184e72a000000000000000000000000000000000000000000000000000000009184e72a000",
          "blockHash": "0xc7118bf2ed8a96fbfeaa1c85b39b133da00b8f827bd4804e59d7484a42f852bc",
          "blockNumber": "0x7eedd5",
          "transactionHash": "0x87ee3887061683f08c76976ca53fa61b508f4c5a0778897f3440545788619ef1",
          "transactionIndex": "0xc5",
          "logIndex": "0x201",
          "removed": false
        }
      ],
      "logsBloom": "0x00000000000000000002000000100000000000000000000000000000000100000000000000000000200000000000000040000000000000000000000000001000000002000000000000000408000000000000000002000000000000000000400000000000000000008200000001000100000000000080020000000010000000000000000200000020000000080000000000000000000000000000000000000000000000008000000000100000000000000000000000400000000440000000000000000802000000000000000080000000000000080000000000000000000000000000040000000000000000020000002000000000008200000000000000000020",
      "type": "0x2",
      "transactionHash": "0x87ee3887061683f08c76976ca53fa61b508f4c5a0778897f3440545788619ef1",
      "transactionIndex": "0xc5",
      "blockHash": "0xc7118bf2ed8a96fbfeaa1c85b39b133da00b8f827bd4804e59d7484a42f852bc",
      "blockNumber": "0x7eedd5",
      "gasUsed": "0x39d85",
      "effectiveGasPrice": "0x20d9f52",
      "from": "0x316a389d7f0ac46b19fcbe7076f125566f09cebc",
      "to": "0x2f8b13a6882e4c4ea52d6588510fb7dfbd09e4e5",
      "contractAddress": null
    }
  ],
  "libraries": [],
  "pending": [],
  "returns": {},
  "timestamp": 1747144645,
  "chain": 11155111,
  "commit": "91c7a70"
}