{
  "transactions": [
    {
      "hash": "0x29003e0c50add12ac62f7a4db43c0d3b7e716692661a74a8f16b0cb7dc1ad079",
      "transactionType": "CALL",
      "contractName": null,
      "contractAddress": "0x26a738b6d33ef4d94ff084d3552961b8f00639cd",
      "function": "approve(address,uint256)",
      "arguments": [
        "0x2F8b13A6882e4c4ea52d6588510fB7DFbD09E4E5",
        "5000000000"
      ],
      "transaction": {
        "from": "0x316a389d7f0ac46b19fcbe7076f125566f09cebc",
        "to": "0x26a738b6d33ef4d94ff084d3552961b8f00639cd",
        "gas": "0x8d2a",
        "value": "0x0",
        "input": "0x095ea7b30000000000000000000000002f8b13a6882e4c4ea52d6588510fb7dfbd09e4e5000000000000000000000000000000000000000000000000000000012a05f200",
        "nonce": "0x15",
        "chainId": "0xaa36a7"
      },
      "additionalContracts": [],
      "isFixedGasLimit": false
    },
    {
      "hash": "0xdcb3f5f1cd9128a37565d38fe86ce4a44f1cf19674ab3000f393b542c6a428f0",
      "transactionType": "CALL",
      "contractName": null,
      "contractAddress": "0x2f8b13a6882e4c4ea52d6588510fb7dfbd09e4e5",
      "function": "send((uint32,bytes32,uint256,uint256,bytes,bytes,bytes),(uint256,uint256),address)",
      "arguments": [
        "(40231, 0x000000000000000000000000316a389d7f0ac46b19fcbe7076f125566f09cebc, 5000000000, 4500000000, 0x0003010021010000000000000000000000000000fde800000000000000000000000000000000, 0x, 0x)",
        "(31846673131952, 0)",
        "0x1804c8AB1F12E6bbf3894d4083f33e07309d1f38"
      ],
      "transaction": {
        "from": "0x316a389d7f0ac46b19fcbe7076f125566f09cebc",
        "to": "0x2f8b13a6882e4c4ea52d6588510fb7dfbd09e4e5",
        "gas": "0x4fe3d",
        "value": "0x1cf6e1a3a9b0",
        "input": "0xc7c7f5b3000000000000000000000000000000000000000000000000000000000000008000000000000000000000000000000000000000000000000000001cf6e1a3a9b000000000000000000000000000000000000000000000000000000000000000000000000000000000000000001804c8ab1f12e6bbf3894d4083f33e07309d1f380000000000000000000000000000000000000000000000000000000000009d27000000000000000000000000316a389d7f0ac46b19fcbe7076f125566f09cebc000000000000000000000000000000000000000000000000000000012a05f200000000000000000000000000000000000000000000000000000000010c388d0000000000000000000000000000000000000000000000000000000000000000e00000000000000000000000000000000000000000000000000000000000000140000000000000000000000000000000000000000000000000000000000000016000000000000000000000000000000000000000000000000000000000000000260003010021010000000000000000000000000000fde800000000000000000000000000000000000000000000000000000000000000000000000000000000000000000000000000000000000000000000000000000000000000000000000000000000000000000000000000000000000000000000000000000000000000000000",
        "nonce": "0x16",
        "chainId": "0xaa36a7"
      },
      "additionalContracts": [],
      "isFixedGasLimit": false
    }
  ],
  "receipts": [
    {
      "status": "0x1",
      "cumulativeGasUsed": "0x1833bf1",
      "logs": [
        {
          "address": "0x26a738b6d33ef4d94ff084d3552961b8f00639cd",
          "topics": [
            "0x8c5be1e5ebec7d5bd14f71427d1e84f3dd0314c0f7b2291e5b200ac8c7c3b925",
            "0x000000000000000000000000316a389d7f0ac46b19fcbe7076f125566f09cebc",
            "0x0000000000000000000000002f8b13a6882e4c4ea52d6588510fb7dfbd09e4e5"
          ],
          "data": "0x000000000000000000000000000000000000000000000000000000012a05f200",
          "blockHash": "0xa30c9a1c46d87db13296ff24f519b7e3c84db829d73f55c42e64324f3340eac9",
          "blockNumber": "0x7f1d34",
          "transactionHash": "0x29003e0c50add12ac62f7a4db43c0d3b7e716692661a74a8f16b0cb7dc1ad079",
          "transactionIndex": "0x9e",
          "logIndex": "0x1ff",
          "removed": false
        }
      ],
      "logsBloom": "0x00000000000000000002000000100000000000000000000000000000000000000000000000000000000000000000000000000000000000000000000000200000000000000000000000000000000000000000000002000000000000000000000000000000000000000000000000000000000000000080020000000000000000000000000200000000000000000000000000000000000000000000000000000000020000000000000000000000000000000000000000000000000000000000000000000800000000000000000000000000000000000000000000000000000000000010000000000000000000020000000000000000000200000000000000000000",
      "type": "0x2",
      "transactionHash": "0x29003e0c50add12ac62f7a4db43c0d3b7e716692661a74a8f16b0cb7dc1ad079",
      "transactionIndex": "0x9e",
      "blockHash": "0xa30c9a1c46d87db13296ff24f519b7e3c84db829d73f55c42e64324f3340eac9",
      "blockNumber": "0x7f1d34",
      "gasUsed": "0x6634",
      "effectiveGasPrice": "0x1f3114cfa",
      "from": "0x316a389d7f0ac46b19fcbe7076f125566f09cebc",
      "to": "0x26a738b6d33ef4d94ff084d3552961b8f00639cd",
      "contractAddress": null
    },
    {
      "status": "0x1",
      "cumulativeGasUsed": "0x186d95e",
      "logs": [
        {
          "address": "0x26a738b6d33ef4d94ff084d3552961b8f00639cd",
          "topics": [
            "0xddf252ad1be2c89b69c2b068fc378daa952ba7f163c4a11628f55a4df523b3ef",
            "0x000000000000000000000000316a389d7f0ac46b19fcbe7076f125566f09cebc",
            "0x0000000000000000000000002f8b13a6882e4c4ea52d6588510fb7dfbd09e4e5"
          ],
          "data": "0x000000000000000000000000000000000000000000000000000000012a05f200",
          "blockHash": "0xa30c9a1c46d87db13296ff24f519b7e3c84db829d73f55c42e64324f3340eac9",
          "blockNumber": "0x7f1d34",
          "transactionHash": "0xdcb3f5f1cd9128a37565d38fe86ce4a44f1cf19674ab3000f393b542c6a428f0",
          "transactionIndex": "0x9f",
          "logIndex": "0x200",
          "removed": false
        },
        {
          "address": "0xcc1ae8cf5d3904cef3360a9532b477529b177cce",
          "topics": [
            "0x61ed099e74a97a1d7f8bb0952a88ca8b7b8ebd00c126ea04671f92a81213318a"
          ],
          "data": "0x000000000000000000000000718b92b5cb0a5552039b593faf724d182a881eda00000000000000000000000000000000000000000000000000001070d53e2000",
          "blockHash": "0xa30c9a1c46d87db13296ff24f519b7e3c84db829d73f55c42e64324f3340eac9",
          "blockNumber": "0x7f1d34",
          "transactionHash": "0xdcb3f5f1cd9128a37565d38fe86ce4a44f1cf19674ab3000f393b542c6a428f0",
          "transactionIndex": "0x9f",
          "logIndex": "0x201",
          "removed": false
        },
        {
          "address": "0xcc1ae8cf5d3904cef3360a9532b477529b177cce",
          "topics": [
            "0x07ea52d82345d6e838192107d8fd7123d9c2ec8e916cd0aad13fd2b60db24644"
          ],
          "data": "0x000000000000000000000000000000000000000000000000000000000000006000000000000000000000000000000000000000000000000000000000000000a000000000000000000000000000000000000000000000000000000000000000c000000000000000000000000000000000000000000000000000000000000000010000000000000000000000008eebf8b423b73bfca51a1db4b7354aa0bfca91930000000000000000000000000000000000000000000000000000000000000000000000000000000000000000000000000000000000000000000000000000000100000000000000000000000000000000000000000000000000000c860c6589b0",
          "blockHash": "0xa30c9a1c46d87db13296ff24f519b7e3c84db829d73f55c42e64324f3340eac9",
          "blockNumber": "0x7f1d34",
          "transactionHash": "0xdcb3f5f1cd9128a37565d38fe86ce4a44f1cf19674ab3000f393b542c6a428f0",
          "transactionIndex": "0x9f",
          "logIndex": "0x202",
          "removed": false
        },
        {
          "address": "0x6edce65403992e310a62460808c4b910d972f10f",
          "topics": [
            "0x1ab700d4ced0c005b164c0f789fd09fcbb0156d4c2041b8a3bfbcd961cd1567f"
          ],
          "data": "0x00000000000000000000000000000000000000000000000000000000000000600000000000000000000000000000000000000000000000000000000000000120000000000000000000000000cc1ae8cf5d3904cef3360a9532b477529b177cce000000000000000000000000000000000000000000000000000000000000009901000000000000000300009ce10000000000000000000000002f8b13a6882e4c4ea52d6588510fb7dfbd09e4e500009d27000000000000000000000000435e2293653a3e80c93290803faa0d152181b8358dcc8fc5603c6ab53609f98e6a8b3eb2ba4f8bd78978ce889ea922ddb552f7e5000000000000000000000000316a389d7f0ac46b19fcbe7076f125566f09cebc00000000004c4b400000000000000000000000000000000000000000000000000000000000000000000000000000260003010021010000000000000000000000000000fde8000000000000000000000000000000000000000000000000000000000000000000000000000000000000",
          "blockHash": "0xa30c9a1c46d87db13296ff24f519b7e3c84db829d73f55c42e64324f3340eac9",
          "blockNumber": "0x7f1d34",
          "transactionHash": "0xdcb3f5f1cd9128a37565d38fe86ce4a44f1cf19674ab3000f393b542c6a428f0",
          "transactionIndex": "0x9f",
          "logIndex": "0x203",
          "removed": false
        },
        {
          "address": "0x2f8b13a6882e4c4ea52d6588510fb7dfbd09e4e5",
          "topics": [
            "0x85496b760a4b7f8d66384b9df21b381f5d1b1e79f229a47aaf4c232edc2fe59a",
            "0x8dcc8fc5603c6ab53609f98e6a8b3eb2ba4f8bd78978ce889ea922ddb552f7e5",
            "0x000000000000000000000000316a389d7f0ac46b19fcbe7076f125566f09cebc"
          ],
          "data": "0x0000000000000000000000000000000000000000000000000000000000009d27000000000000000000000000000000000000000000000000000000012a05f200000000000000000000000000000000000000000000000000000000012a05f200",
          "blockHash": "0xa30c9a1c46d87db13296ff24f519b7e3c84db829d73f55c42e64324f3340eac9",
          "blockNumber": "0x7f1d34",
          "transactionHash": "0xdcb3f5f1cd9128a37565d38fe86ce4a44f1cf19674ab3000f393b542c6a428f0",
          "transactionIndex": "0x9f",
          "logIndex": "0x204",
          "removed": false
        }
      ],
      "logsBloom": "0x00000000000000000002000000100000000000000000000000000000000100000000000000000000200000000000000040000000000000000000000000001000000002000000000000000008080000000000000002000000000000000000000000000000000000008200000001000000000000000080020000000010000000000000000200000020000000080000000000000000000000000000080000000000000000008000040000100000000000000000000000400000000440000000000000000802000000000000000080000000000000080000000000000000000000000000040000000000000000020000002000000000008200000000000000000020",
      "type": "0x2",
      "transactionHash": "0xdcb3f5f1cd9128a37565d38fe86ce4a44f1cf19674ab3000f393b542c6a428f0",
      "transactionIndex": "0x9f",
      "blockHash": "0xa30c9a1c46d87db13296ff24f519b7e3c84db829d73f55c42e64324f3340eac9",
      "blockNumber": "0x7f1d34",
      "gasUsed": "0x39d6d",
      "effectiveGasPrice": "0x1f3114cfa",
      "from": "0x316a389d7f0ac46b19fcbe7076f125566f09cebc",
      "to": "0x2f8b13a6882e4c4ea52d6588510fb7dfbd09e4e5",
      "contractAddress": null
    }
  ],
  "libraries": [],
  "pending": [],
  "returns": {},
  "timestamp": 1747295569,
  "chain": 11155111,
  "commit": "7a713a6"
}