{
  "transactions": [
    {
      "hash": "0xa78a5bf919d2c659574d2147cc563a68467f0b287014d09133f9d7b0f022c46f",
      "transactionType": "CALL",
      "contractName": null,
      "contractAddress": "0x435e2293653a3e80c93290803faa0d152181b835",
      "function": "send((uint32,bytes32,uint256,uint256,bytes,bytes,bytes),(uint256,uint256),address)",
      "arguments": [
        "(40161, 0x000000000000000000000000316a389d7f0ac46b19fcbe7076f125566f09cebc, 5000000000000000000000, 4500000000000000000000, 0x0003010021010000000000000000000000000000fde800000000000000000000000000000000, 0x, 0x)",
        "(2542358781728332, 0)",
        "0x1804c8AB1F12E6bbf3894d4083f33e07309d1f38"
      ],
      "transaction": {
        "from": "0x316a389d7f0ac46b19fcbe7076f125566f09cebc",
        "to": "0x435e2293653a3e80c93290803faa0d152181b835",
        "gas": "0x4c88f",
        "value": "0x908430813964c",
        "input": "0xc7c7f5b30000000000000000000000000000000000000000000000000000000000000080000000000000000000000000000000000000000000000000000908430813964c00000000000000000000000000000000000000000000000000000000000000000000000000000000000000001804c8ab1f12e6bbf3894d4083f33e07309d1f380000000000000000000000000000000000000000000000000000000000009ce1000000000000000000000000316a389d7f0ac46b19fcbe7076f125566f09cebc00000000000000000000000000000000000000000000010f0cf064dd592000000000000000000000000000000000000000000000000000f3f20b8dfa69d0000000000000000000000000000000000000000000000000000000000000000000e00000000000000000000000000000000000000000000000000000000000000140000000000000000000000000000000000000000000000000000000000000016000000000000000000000000000000000000000000000000000000000000000260003010021010000000000000000000000000000fde800000000000000000000000000000000000000000000000000000000000000000000000000000000000000000000000000000000000000000000000000000000000000000000000000000000000000000000000000000000000000000000000000000000000000000000",
        "nonce": "0x8",
        "chainId": "0x66eee"
      },
      "additionalContracts": [],
      "isFixedGasLimit": false
    }
  ],
  "receipts": [
    {
      "status": "0x1",
      "cumulativeGasUsed": "0x10a91f",
      "logs": [
        {
          "address": "0x435e2293653a3e80c93290803faa0d152181b835",
          "topics": [
            "0xddf252ad1be2c89b69c2b068fc378daa952ba7f163c4a11628f55a4df523b3ef",
            "0x000000000000000000000000316a389d7f0ac46b19fcbe7076f125566f09cebc",
            "0x0000000000000000000000000000000000000000000000000000000000000000"
          ],
          "data": "0x00000000000000000000000000000000000000000000010f0cf064dd59200000",
          "blockHash": "0x05f111ea39c48f812b3b12cd25ae49a84a75d7ddf495521460601f0760ff4055",
          "blockNumber": "0x91b22a4",
          "transactionHash": "0xa78a5bf919d2c659574d2147cc563a68467f0b287014d09133f9d7b0f022c46f",
          "transactionIndex": "0x10",
          "logIndex": "0x0",
          "removed": false
        },
        {
          "address": "0x4f7cd4da19abb31b0ec98b9066b9e857b1bf9c0e",
          "topics": [
            "0x61ed099e74a97a1d7f8bb0952a88ca8b7b8ebd00c126ea04671f92a81213318a"
          ],
          "data": "0x0000000000000000000000005df3a1cebbd9c8ba7f8df51fd632a9aef830889700000000000000000000000000000000000000000000000000057774dce1caa0",
          "blockHash": "0x05f111ea39c48f812b3b12cd25ae49a84a75d7ddf495521460601f0760ff4055",
          "blockNumber": "0x91b22a4",
          "transactionHash": "0xa78a5bf919d2c659574d2147cc563a68467f0b287014d09133f9d7b0f022c46f",
          "transactionIndex": "0x10",
          "logIndex": "0x1",
          "removed": false
        },
        {
          "address": "0x4f7cd4da19abb31b0ec98b9066b9e857b1bf9c0e",
          "topics": [
            "0x07ea52d82345d6e838192107d8fd7123d9c2ec8e916cd0aad13fd2b60db24644"
          ],
          "data": "0x000000000000000000000000000000000000000000000000000000000000006000000000000000000000000000000000000000000000000000000000000000a000000000000000000000000000000000000000000000000000000000000000c0000000000000000000000000000000000000000000000000000000000000000100000000000000000000000053f488e93b4f1b60e8e83aa374dbe1780a1ee8a800000000000000000000000000000000000000000000000000000000000000000000000000000000000000000000000000000000000000000000000000000001000000000000000000000000000000000000000000000000000390ce2b31cbac",
          "blockHash": "0x05f111ea39c48f812b3b12cd25ae49a84a75d7ddf495521460601f0760ff4055",
          "blockNumber": "0x91b22a4",
          "transactionHash": "0xa78a5bf919d2c659574d2147cc563a68467f0b287014d09133f9d7b0f022c46f",
          "transactionIndex": "0x10",
          "logIndex": "0x2",
          "removed": false
        },
        {
          "address": "0x6edce65403992e310a62460808c4b910d972f10f",
          "topics": [
            "0x1ab700d4ced0c005b164c0f789fd09fcbb0156d4c2041b8a3bfbcd961cd1567f"
          ],
          "data": "0x000000000000000000000000000000000000000000000000000000000000006000000000000000000000000000000000000000000000000000000000000001200000000000000000000000004f7cd4da19abb31b0ec98b9066b9e857b1bf9c0e000000000000000000000000000000000000000000000000000000000000009901000000000000000200009d27000000000000000000000000435e2293653a3e80c93290803faa0d152181b83500009ce10000000000000000000000002f8b13a6882e4c4ea52d6588510fb7dfbd09e4e55d50b07b49f4b423f8c8ae515274f91f44cc951bfa4b16d0bf036ad94d1c9e43000000000000000000000000316a389d7f0ac46b19fcbe7076f125566f09cebc000000012a05f2000000000000000000000000000000000000000000000000000000000000000000000000000000260003010021010000000000000000000000000000fde8000000000000000000000000000000000000000000000000000000000000000000000000000000000000",
          "blockHash": "0x05f111ea39c48f812b3b12cd25ae49a84a75d7ddf495521460601f0760ff4055",
          "blockNumber": "0x91b22a4",
          "transactionHash": "0xa78a5bf919d2c659574d2147cc563a68467f0b287014d09133f9d7b0f022c46f",
          "transactionIndex": "0x10",
          "logIndex": "0x3",
          "removed": false
        },
        {
          "address": "0x435e2293653a3e80c93290803faa0d152181b835",
          "topics": [
            "0x85496b760a4b7f8d66384b9df21b381f5d1b1e79f229a47aaf4c232edc2fe59a",
            "0x5d50b07b49f4b423f8c8ae515274f91f44cc951bfa4b16d0bf036ad94d1c9e43",
            "0x000000000000000000000000316a389d7f0ac46b19fcbe7076f125566f09cebc"
          ],
          "data": "0x0000000000000000000000000000000000000000000000000000000000009ce100000000000000000000000000000000000000000000010f0cf064dd5920000000000000000000000000000000000000000000000000010f0cf064dd59200000",
          "blockHash": "0x05f111ea39c48f812b3b12cd25ae49a84a75d7ddf495521460601f0760ff4055",
          "blockNumber": "0x91b22a4",
          "transactionHash": "0xa78a5bf919d2c659574d2147cc563a68467f0b287014d09133f9d7b0f022c46f",
          "transactionIndex": "0x10",
          "logIndex": "0x4",
          "removed": false
        }
      ],
      "logsBloom": "0x00000000000000000002000000000000000100080000000000000000000000000010000000000000200000000000000000000001008000000000000000000000000002000000000000000008000000000000000000000000000000000000000000000000020000008200000000000800000000000080000000000010000000000000000000000020000000080000000000000000000000010000000000000000000000008000000000102000000000000000040000400000000440000000000000000002000000000000000080000000000400000000000000000000000020000000040000000000000000000000002000000000008200000000000000000000",
      "type": "0x2",
      "transactionHash": "0xa78a5bf919d2c659574d2147cc563a68467f0b287014d09133f9d7b0f022c46f",
      "transactionIndex": "0x10",
      "blockHash": "0x05f111ea39c48f812b3b12cd25ae49a84a75d7ddf495521460601f0760ff4055",
      "blockNumber": "0x91b22a4",
      "gasUsed": "0x399ae",
      "effectiveGasPrice": "0x5f5e100",
      "from": "0x316a389d7f0ac46b19fcbe7076f125566f09cebc",
      "to": "0x435e2293653a3e80c93290803faa0d152181b835",
      "contractAddress": null,
      "gasUsedForL1": "0xe72",
      "l1BlockNumber": "0x7f0104",
      "timeboosted": false
    }
  ],
  "libraries": [],
  "pending": [],
  "returns": {},
  "timestamp": 1747204580,
  "chain": 421614,
  "commit": "0fd43c7"
}