{
  "transactions": [
    {
      "hash": "0x7e67e3e199683af23ea7dc5c27cc57f13382a56f0658eea3cc2a9475228fc7fc",
      "transactionType": "CALL",
      "contractName": null,
      "contractAddress": "0x435e2293653a3e80c93290803faa0d152181b835",
      "function": "send((uint32,bytes32,uint256,uint256,bytes,bytes,bytes),(uint256,uint256),address)",
      "arguments": [
        "(40161, 0x000000000000000000000000316a389d7f0ac46b19fcbe7076f125566f09cebc, 5000000000000, 4500000000000, 0x0003010021010000000000000000000000000000fde800000000000000000000000000000000, 0x, 0x)",
        "(1650940778031513, 0)",
        "0x1804c8AB1F12E6bbf3894d4083f33e07309d1f38"
      ],
      "transaction": {
        "from": "0x316a389d7f0ac46b19fcbe7076f125566f09cebc",
        "to": "0x435e2293653a3e80c93290803faa0d152181b835",
        "gas": "0x530c4",
        "value": "0x5dd859a9ea999",
        "input": "0xc7c7f5b300000000000000000000000000000000000000000000000000000000000000800000000000000000000000000000000000000000000000000005dd859a9ea99900000000000000000000000000000000000000000000000000000000000000000000000000000000000000001804c8ab1f12e6bbf3894d4083f33e07309d1f380000000000000000000000000000000000000000000000000000000000009ce1000000000000000000000000316a389d7f0ac46b19fcbe7076f125566f09cebc0000000000000000000000000000000000000000000000000000048c2739500000000000000000000000000000000000000000000000000000000417bce6c80000000000000000000000000000000000000000000000000000000000000000e00000000000000000000000000000000000000000000000000000000000000140000000000000000000000000000000000000000000000000000000000000016000000000000000000000000000000000000000000000000000000000000000260003010021010000000000000000000000000000fde800000000000000000000000000000000000000000000000000000000000000000000000000000000000000000000000000000000000000000000000000000000000000000000000000000000000000000000000000000000000000000000000000000000000000000000",
        "nonce": "0x7",
        "chainId": "0x66eee"
      },
      "additionalContracts": [],
      "isFixedGasLimit": false
    }
  ],
  "receipts": [
    {
      "status": "0x1",
      "cumulativeGasUsed": "0x98210",
      "logs": [
        {
          "address": "0x435e2293653a3e80c93290803faa0d152181b835",
          "topics": [
            "0xddf252ad1be2c89b69c2b068fc378daa952ba7f163c4a11628f55a4df523b3ef",
            "0x000000000000000000000000316a389d7f0ac46b19fcbe7076f125566f09cebc",
            "0x0000000000000000000000000000000000000000000000000000000000000000"
          ],
          "data": "0x0000000000000000000000000000000000000000000000000000048c27395000",
          "blockHash": "0xbc5f23b76034a9090855f4ddf8af02b93c6900a81cd293747272470201aaf6c7",
          "blockNumber": "0x9181409",
          "transactionHash": "0x7e67e3e199683af23ea7dc5c27cc57f13382a56f0658eea3cc2a9475228fc7fc",
          "transactionIndex": "0x3",
          "logIndex": "0x4",
          "removed": false
        },
        {
          "address": "0x4f7cd4da19abb31b0ec98b9066b9e857b1bf9c0e",
          "topics": [
            "0x61ed099e74a97a1d7f8bb0952a88ca8b7b8ebd00c126ea04671f92a81213318a"
          ],
          "data": "0x0000000000000000000000005df3a1cebbd9c8ba7f8df51fd632a9aef830889700000000000000000000000000000000000000000000000000038cc5292a9c00",
          "blockHash": "0xbc5f23b76034a9090855f4ddf8af02b93c6900a81cd293747272470201aaf6c7",
          "blockNumber": "0x9181409",
          "transactionHash": "0x7e67e3e199683af23ea7dc5c27cc57f13382a56f0658eea3cc2a9475228fc7fc",
          "transactionIndex": "0x3",
          "logIndex": "0x5",
          "removed": false
        },
        {
          "address": "0x4f7cd4da19abb31b0ec98b9066b9e857b1bf9c0e",
          "topics": [
            "0x07ea52d82345d6e838192107d8fd7123d9c2ec8e916cd0aad13fd2b60db24644"
          ],
          "data": "0x000000000000000000000000000000000000000000000000000000000000006000000000000000000000000000000000000000000000000000000000000000a000000000000000000000000000000000000000000000000000000000000000c0000000000000000000000000000000000000000000000000000000000000000100000000000000000000000053f488e93b4f1b60e8e83aa374dbe1780a1ee8a800000000000000000000000000000000000000000000000000000000000000000000000000000000000000000000000000000000000000000000000000000001000000000000000000000000000000000000000000000000000250c071740d99",
          "blockHash": "0xbc5f23b76034a9090855f4ddf8af02b93c6900a81cd293747272470201aaf6c7",
          "blockNumber": "0x9181409",
          "transactionHash": "0x7e67e3e199683af23ea7dc5c27cc57f13382a56f0658eea3cc2a9475228fc7fc",
          "transactionIndex": "0x3",
          "logIndex": "0x6",
          "removed": false
        },
        {
          "address": "0x6edce65403992e310a62460808c4b910d972f10f",
          "topics": [
            "0x1ab700d4ced0c005b164c0f789fd09fcbb0156d4c2041b8a3bfbcd961cd1567f"
          ],
          "data": "0x000000000000000000000000000000000000000000000000000000000000006000000000000000000000000000000000000000000000000000000000000001200000000000000000000000004f7cd4da19abb31b0ec98b9066b9e857b1bf9c0e000000000000000000000000000000000000000000000000000000000000009901000000000000000100009d27000000000000000000000000435e2293653a3e80c93290803faa0d152181b83500009ce10000000000000000000000002f8b13a6882e4c4ea52d6588510fb7dfbd09e4e5b85e1a2b4d515b9b96c662a5de7433a665756a1e4aa0b1f7c3b449568d512be5000000000000000000000000316a389d7f0ac46b19fcbe7076f125566f09cebc00000000000000050000000000000000000000000000000000000000000000000000000000000000000000000000260003010021010000000000000000000000000000fde8000000000000000000000000000000000000000000000000000000000000000000000000000000000000",
          "blockHash": "0xbc5f23b76034a9090855f4ddf8af02b93c6900a81cd293747272470201aaf6c7",
          "blockNumber": "0x9181409",
          "transactionHash": "0x7e67e3e199683af23ea7dc5c27cc57f13382a56f0658eea3cc2a9475228fc7fc",
          "transactionIndex": "0x3",
          "logIndex": "0x7",
          "removed": false
        },
        {
          "address": "0x435e2293653a3e80c93290803faa0d152181b835",
          "topics": [
            "0x85496b760a4b7f8d66384b9df21b381f5d1b1e79f229a47aaf4c232edc2fe59a",
            "0xb85e1a2b4d515b9b96c662a5de7433a665756a1e4aa0b1f7c3b449568d512be5",
            "0x000000000000000000000000316a389d7f0ac46b19fcbe7076f125566f09cebc"
          ],
          "data": "0x0000000000000000000000000000000000000000000000000000000000009ce10000000000000000000000000000000000000000000000000000048c273950000000000000000000000000000000000000000000000000000000048c27395000",
          "blockHash": "0xbc5f23b76034a9090855f4ddf8af02b93c6900a81cd293747272470201aaf6c7",
          "blockNumber": "0x9181409",
          "transactionHash": "0x7e67e3e199683af23ea7dc5c27cc57f13382a56f0658eea3cc2a9475228fc7fc",
          "transactionIndex": "0x3",
          "logIndex": "0x8",
          "removed": false
        }
      ],
      "logsBloom": "0x00000000000000000002000000000000000000000000000000000000000000000010000000000000200000000000000000000000008000000000000000000000000002000000000000000008000000000000000000000000000000000000020000000000020000008200000000000800000000000080001000000010000000000000000000000020000000080000000000000000000000010000000000000000000000008000000000102000000000000000040000400000000440000000000000000002000000000000000080000000000400000000000000000000000020000000040000000000000000000000002000000000008200000000000040000000",
      "type": "0x2",
      "transactionHash": "0x7e67e3e199683af23ea7dc5c27cc57f13382a56f0658eea3cc2a9475228fc7fc",
      "transactionIndex": "0x3",
      "blockHash": "0xbc5f23b76034a9090855f4ddf8af02b93c6900a81cd293747272470201aaf6c7",
      "blockNumber": "0x9181409",
      "gasUsed": "0x3e6d0",
      "effectiveGasPrice": "0x5f5e100",
      "from": "0x316a389d7f0ac46b19fcbe7076f125566f09cebc",
      "to": "0x435e2293653a3e80c93290803faa0d152181b835",
      "contractAddress": null,
      "gasUsedForL1": "0x1904",
      "l1BlockNumber": "0x7ef0ce",
      "timeboosted": false
    }
  ],
  "libraries": [],
  "pending": [],
  "returns": {},
  "timestamp": 1747154461,
  "chain": 421614,
  "commit": "0fd43c7"
}