{
  "transactions": [
    {
      "hash": "0x198ee0789905a9605b7602969c69c3e64c1c64a2863cb9b8425b900a4def7a35",
      "transactionType": "CALL",
      "contractName": null,
      "contractAddress": "0x435e2293653a3e80c93290803faa0d152181b835",
      "function": "send((uint32,bytes32,uint256,uint256,bytes,bytes,bytes),(uint256,uint256),address)",
      "arguments": [
        "(40161, 0x000000000000000000000000316a389d7f0ac46b19fcbe7076f125566f09cebc, 5000000000000000000, 4500000000000000000, 0x0003010021010000000000000000000000000000fde800000000000000000000000000000000, 0x, 0x)",
        "(1139323369640908, 0)",
        "0x1804c8AB1F12E6bbf3894d4083f33e07309d1f38"
      ],
      "transaction": {
        "from": "0x316a389d7f0ac46b19fcbe7076f125566f09cebc",
        "to": "0x435e2293653a3e80c93290803faa0d152181b835",
        "gas": "0x4b1ba",
        "value": "0x40c3564bb53cc",
        "input": "0xc7c7f5b3000000000000000000000000000000000000000000000000000000000000008000000000000000000000000000000000000000000000000000040c3564bb53cc00000000000000000000000000000000000000000000000000000000000000000000000000000000000000001804c8ab1f12e6bbf3894d4083f33e07309d1f380000000000000000000000000000000000000000000000000000000000009ce1000000000000000000000000316a389d7f0ac46b19fcbe7076f125566f09cebc0000000000000000000000000000000000000000000000004563918244f400000000000000000000000000000000000000000000000000003e7336287142000000000000000000000000000000000000000000000000000000000000000000e00000000000000000000000000000000000000000000000000000000000000140000000000000000000000000000000000000000000000000000000000000016000000000000000000000000000000000000000000000000000000000000000260003010021010000000000000000000000000000fde800000000000000000000000000000000000000000000000000000000000000000000000000000000000000000000000000000000000000000000000000000000000000000000000000000000000000000000000000000000000000000000000000000000000000000000",
        "nonce": "0x9",
        "chainId": "0x66eee"
      },
      "additionalContracts": [],
      "isFixedGasLimit": false
    }
  ],
  "receipts": [
    {
      "status": "0x1",
      "cumulativeGasUsed": "0x61b52",
      "logs": [
        {
          "address": "0x435e2293653a3e80c93290803faa0d152181b835",
          "topics": [
            "0xddf252ad1be2c89b69c2b068fc378daa952ba7f163c4a11628f55a4df523b3ef",
            "0x000000000000000000000000316a389d7f0ac46b19fcbe7076f125566f09cebc",
            "0x0000000000000000000000000000000000000000000000000000000000000000"
          ],
          "data": "0x0000000000000000000000000000000000000000000000004563918244f40000",
          "blockHash": "0xc107c66487d811ea358bfb66d9f6f09603c3967d979fd81ce3c00f87a5be1b76",
          "blockNumber": "0x91d0d26",
          "transactionHash": "0x198ee0789905a9605b7602969c69c3e64c1c64a2863cb9b8425b900a4def7a35",
          "transactionIndex": "0x3",
          "logIndex": "0x3",
          "removed": false
        },
        {
          "address": "0x4f7cd4da19abb31b0ec98b9066b9e857b1bf9c0e",
          "topics": [
            "0x61ed099e74a97a1d7f8bb0952a88ca8b7b8ebd00c126ea04671f92a81213318a"
          ],
          "data": "0x0000000000000000000000005df3a1cebbd9c8ba7f8df51fd632a9aef830889700000000000000000000000000000000000000000000000000027325b698f040",
          "blockHash": "0xc107c66487d811ea358bfb66d9f6f09603c3967d979fd81ce3c00f87a5be1b76",
          "blockNumber": "0x91d0d26",
          "transactionHash": "0x198ee0789905a9605b7602969c69c3e64c1c64a2863cb9b8425b900a4def7a35",
          "transactionIndex": "0x3",
          "logIndex": "0x4",
          "removed": false
        },
        {
          "address": "0x4f7cd4da19abb31b0ec98b9066b9e857b1bf9c0e",
          "topics": [
            "0x07ea52d82345d6e838192107d8fd7123d9c2ec8e916cd0aad13fd2b60db24644"
          ],
          "data": "0x000000000000000000000000000000000000000000000000000000000000006000000000000000000000000000000000000000000000000000000000000000a000000000000000000000000000000000000000000000000000000000000000c0000000000000000000000000000000000000000000000000000000000000000100000000000000000000000053f488e93b4f1b60e8e83aa374dbe1780a1ee8a8000000000000000000000000000000000000000000000000000000000000000000000000000000000000000000000000000000000000000000000000000000010000000000000000000000000000000000000000000000000001990fae22638c",
          "blockHash": "0xc107c66487d811ea358bfb66d9f6f09603c3967d979fd81ce3c00f87a5be1b76",
          "blockNumber": "0x91d0d26",
          "transactionHash": "0x198ee0789905a9605b7602969c69c3e64c1c64a2863cb9b8425b900a4def7a35",
          "transactionIndex": "0x3",
          "logIndex": "0x5",
          "removed": false
        },
        {
          "address": "0x6edce65403992e310a62460808c4b910d972f10f",
          "topics": [
            "0x1ab700d4ced0c005b164c0f789fd09fcbb0156d4c2041b8a3bfbcd961cd1567f"
          ],
          "data": "0x000000000000000000000000000000000000000000000000000000000000006000000000000000000000000000000000000000000000000000000000000001200000000000000000000000004f7cd4da19abb31b0ec98b9066b9e857b1bf9c0e000000000000000000000000000000000000000000000000000000000000009901000000000000000300009d27000000000000000000000000435e2293653a3e80c93290803faa0d152181b83500009ce10000000000000000000000002f8b13a6882e4c4ea52d6588510fb7dfbd09e4e5f23a7cdbb34caf2dc360640088cbeec335fdd17b1c2e526d38c64156367e0576000000000000000000000000316a389d7f0ac46b19fcbe7076f125566f09cebc00000000004c4b400000000000000000000000000000000000000000000000000000000000000000000000000000260003010021010000000000000000000000000000fde8000000000000000000000000000000000000000000000000000000000000000000000000000000000000",
          "blockHash": "0xc107c66487d811ea358bfb66d9f6f09603c3967d979fd81ce3c00f87a5be1b76",
          "blockNumber": "0x91d0d26",
          "transactionHash": "0x198ee0789905a9605b7602969c69c3e64c1c64a2863cb9b8425b900a4def7a35",
          "transactionIndex": "0x3",
          "logIndex": "0x6",
          "removed": false
        },
        {
          "address": "0x435e2293653a3e80c93290803faa0d152181b835",
          "topics": [
            "0x85496b760a4b7f8d66384b9df21b381f5d1b1e79f229a47aaf4c232edc2fe59a",
            "0xf23a7cdbb34caf2dc360640088cbeec335fdd17b1c2e526d38c64156367e0576",
            "0x000000000000000000000000316a389d7f0ac46b19fcbe7076f125566f09cebc"
          ],
          "data": "0x0000000000000000000000000000000000000000000000000000000000009ce10000000000000000000000000000000000000000000000004563918244f400000000000000000000000000000000000000000000000000004563918244f40000",
          "blockHash": "0xc107c66487d811ea358bfb66d9f6f09603c3967d979fd81ce3c00f87a5be1b76",
          "blockNumber": "0x91d0d26",
          "transactionHash": "0x198ee0789905a9605b7602969c69c3e64c1c64a2863cb9b8425b900a4def7a35",
          "transactionIndex": "0x3",
          "logIndex": "0x7",
          "removed": false
        }
      ],
      "logsBloom": "0x00000000000000000002000000000000000000000000000000000000000000000010000000000000200000000000000000000000008000000000000000000000000002000000000000000008000000000000000000000000000000000000000000000000020000008200000000000800000000000080000000000010000000000000000000000020000000080000000000000000000000810000000000000000000000008000000000102000000000000000040000400000000440000000000000080002000000000000000080000000000400000000000000000000000020000000040000000000000000000000002000000000008200000000000400000000",
      "type": "0x2",
      "transactionHash": "0x198ee0789905a9605b7602969c69c3e64c1c64a2863cb9b8425b900a4def7a35",
      "transactionIndex": "0x3",
      "blockHash": "0xc107c66487d811ea358bfb66d9f6f09603c3967d979fd81ce3c00f87a5be1b76",
      "blockNumber": "0x91d0d26",
      "gasUsed": "0x38b18",
      "effectiveGasPrice": "0x5f5e100",
      "from": "0x316a389d7f0ac46b19fcbe7076f125566f09cebc",
      "to": "0x435e2293653a3e80c93290803faa0d152181b835",
      "contractAddress": null,
      "gasUsedForL1": "0x0",
      "l1BlockNumber": "0x7f0ab2",
      "timeboosted": false
    }
  ],
  "libraries": [],
  "pending": [],
  "returns": {},
  "timestamp": 1747236004,
  "chain": 421614,
  "commit": "c400115"
}