{
  "transactions": [
    {
      "hash": "0x07b959cbaf66d7333245676857832784396bc32264e5933b9e401342eb2ed36b",
      "transactionType": "CALL",
      "contractName": null,
      "contractAddress": "0x39baeafdf85ec5bbf3d00f7c27f0bc2f8e22ecd2",
      "function": "setPeer(uint32,bytes32)",
      "arguments": [
        "40161",
        "0x00000000000000000000000083784f1233ba5c883f4a74ccb6b71991cb442192"
      ],
      "transaction": {
        "from": "0x316a389d7f0ac46b19fcbe7076f125566f09cebc",
        "to": "0x39baeafdf85ec5bbf3d00f7c27f0bc2f8e22ecd2",
        "gas": "0xf710",
        "value": "0x0",
        "input": "0x3400288b0000000000000000000000000000000000000000000000000000000000009ce100000000000000000000000083784f1233ba5c883f4a74ccb6b71991cb442192",
        "nonce": "0x4",
        "chainId": "0x66eee"
      },
      "additionalContracts": [],
      "isFixedGasLimit": false
    }
  ],
  "receipts": [
    {
      "status": "0x1",
      "cumulativeGasUsed": "0xbc8b",
      "logs": [
        {
          "address": "0x39baeafdf85ec5bbf3d00f7c27f0bc2f8e22ecd2",
          "topics": [
            "0x238399d427b947898edb290f5ff0f9109849b1c3ba196a42e35f00c50a54b98b"
          ],
          "data": "0x0000000000000000000000000000000000000000000000000000000000009ce100000000000000000000000083784f1233ba5c883f4a74ccb6b71991cb442192",
          "blockHash": "0xacc0132fbc429ca4dc9ebec6899d2d216457fa7eac39e8ed01c38660e7fcefdb",
          "blockNumber": "0x902dca6",
          "transactionHash": "0x07b959cbaf66d7333245676857832784396bc32264e5933b9e401342eb2ed36b",
          "transactionIndex": "0x1",
          "logIndex": "0x0",
          "removed": false
        }
      ],
      "logsBloom": "0x00000000000000000000000000000000000000000000000000000000000000000000000000000000000000000000000000000000000000000800000000000000000000000000000000000000000000001000000000000000000000000000000000000000000000000000000000000000000000000000000000000000000000000000000002000000000000000000200000000000000000000000000000000000000000000000000000000000000000000000000000000000000002000000000000000000000000000000000000000000000000000000000000040000000000000000000000000000000000000000000000000000000000000000000000000000",
      "type": "0x2",
      "transactionHash": "0x07b959cbaf66d7333245676857832784396bc32264e5933b9e401342eb2ed36b",
      "transactionIndex": "0x1",
      "blockHash": "0xacc0132fbc429ca4dc9ebec6899d2d216457fa7eac39e8ed01c38660e7fcefdb",
      "blockNumber": "0x902dca6",
      "gasUsed": "0xbc8b",
      "effectiveGasPrice": "0x5f5e100",
      "from": "0x316a389d7f0ac46b19fcbe7076f125566f09cebc",
      "to": "0x39baeafdf85ec5bbf3d00f7c27f0bc2f8e22ecd2",
      "contractAddress": null,
      "gasUsedForL1": "0x0",
      "l1BlockNumber": "0x7e80d9",
      "timeboosted": false
    }
  ],
  "libraries": [],
  "pending": [],
  "returns": {},
  "timestamp": 1746806266,
  "chain": 421614,
  "commit": "91c7a70"
}