{
  "transactions": [
    {
      "hash": "0x5b7d1229a37e456e1895979b59da7b68e2eeba0d240ef3921b2d49bec3eb3851",
      "transactionType": "CALL",
      "contractName": null,
      "contractAddress": "0x435e2293653a3e80c93290803faa0d152181b835",
      "function": "setPeer(uint32,bytes32)",
      "arguments": [
        "40161",
        "0x0000000000000000000000002f8b13a6882e4c4ea52d6588510fb7dfbd09e4e5"
      ],
      "transaction": {
        "from": "0x316a389d7f0ac46b19fcbe7076f125566f09cebc",
        "to": "0x435e2293653a3e80c93290803faa0d152181b835",
        "gas": "0xf73b",
        "value": "0x0",
        "input": "0x3400288b0000000000000000000000000000000000000000000000000000000000009ce10000000000000000000000002f8b13a6882e4c4ea52d6588510fb7dfbd09e4e5",
        "nonce": "0x6",
        "chainId": "0x66eee"
      },
      "additionalContracts": [],
      "isFixedGasLimit": false
    }
  ],
  "receipts": [
    {
      "status": "0x1",
      "cumulativeGasUsed": "0x5f1e1",
      "logs": [
        {
          "address": "0x435e2293653a3e80c93290803faa0d152181b835",
          "topics": [
            "0x238399d427b947898edb290f5ff0f9109849b1c3ba196a42e35f00c50a54b98b"
          ],
          "data": "0x0000000000000000000000000000000000000000000000000000000000009ce10000000000000000000000002f8b13a6882e4c4ea52d6588510fb7dfbd09e4e5",
          "blockHash": "0x6feb375568211806805dfe602df897d819b725d0ea54db174e6229adcf84c9a6",
          "blockNumber": "0x91680b7",
          "transactionHash": "0x5b7d1229a37e456e1895979b59da7b68e2eeba0d240ef3921b2d49bec3eb3851",
          "transactionIndex": "0x4",
          "logIndex": "0xc",
          "removed": false
        }
      ],
      "logsBloom": "0x00000000000000000000000000000000000000000000000000000000000000000010000000000000000000000000000000000000000000000800000000000000000000000000000000000000000000000000000000000000000000000000000000000000000000000000000000000000000000000000000000000000000000000000000000000000000000000000000000000000000000000000000000000000000000000000000000000000000000000000040000000000000002000000000000000000000000000000000000000000000400000000000000040000000000000000000000000000000000000000000000000000000000000000000000000000",
      "type": "0x2",
      "transactionHash": "0x5b7d1229a37e456e1895979b59da7b68e2eeba0d240ef3921b2d49bec3eb3851",
      "transactionIndex": "0x4",
      "blockHash": "0x6feb375568211806805dfe602df897d819b725d0ea54db174e6229adcf84c9a6",
      "blockNumber": "0x91680b7",
      "gasUsed": "0xbca4",
      "effectiveGasPrice": "0x5f5e100",
      "from": "0x316a389d7f0ac46b19fcbe7076f125566f09cebc",
      "to": "0x435e2293653a3e80c93290803faa0d152181b835",
      "contractAddress": null,
      "gasUsedForL1": "0x19",
      "l1BlockNumber": "0x7ee902",
      "timeboosted": false
    }
  ],
  "libraries": [],
  "pending": [],
  "returns": {},
  "timestamp": 1747128620,
  "chain": 421614,
  "commit": "91c7a70"
}